:10000000F9C000000C94D2230C94FD230C942824F6
:100010000C9453240C947E240C94A9240C94D42482
:100020000C94FF2418C1000016C1000014C1000088
:1000300012C1000010C100000EC100000CC1000080
:100040000AC1000008C1000006C1000004C1000090
:1000500002C1000000C10000FEC000000C942A256F
:10006000FAC000000C94CF270C940528F4C00000BF
:10007000F2C00000F0C00000EEC00000ECC00000C4
:10008000EAC00000E8C00000E6C00000E4C00000D4
:100090000C945B280C949128DEC00000DCC00000AA
:1000A000DAC00000D8C00000D6C00000D4C00000F4
:1000B000D2C00000D0C00000CEC00000CCC0000004
:1000C000CAC00000C8C000000C9403200C94E728AC
:1000D0000C941D29C0C000000C9473290C94A9290C
:1000E000BAC0000000000A0B02090C0D0E0807033D
:1000F00004010000000000000000000000000000FB
:1001000000000000000000000000000000000000EF
:1001100012111000000000000000000000000000AC
:100120000000000000000000000001021020200874
:100130000810204010204080020102010804020142
:1001400001020408102040808040201008040201B1
:10015000800402018040201008040201080402010A
:100160000102040810204080010204081020408091
:1001700005050505070508080808020202020A0A23
:100180000808040404040101010101010101030341
:10019000030303030303040707070C0C0C0C0C0CEC
:1001A0000C0C0202020206060606060606060B0BE9
:1001B0000B0B0B0B0B0B00002200250028002B0063
:1001C0002E003100340002010000050108010B017E
:1001D00000002100240027002A002D0030003300F9
:1001E00001010000040107010A01F1042E28BA28C8
:1001F0004629D22911241FBECFEFD1E2DEBFCDBFE9
:1002000000E00CBF13E0A0E0B2E0E0EBF4E500E0BA
:100210000BBF02C007900D92AC33B107D9F72BE0AA
:10022000ACE3B3E001C01D92A839B207E1F710E0DA
:10023000CAEFD0E000E006C021970109802FFE013F
:100240000E944E2AC53FD10780E00807A9F70E9407
:10025000A7200C94562AD4CE611102C00C943C26DF
:100260006130E1F362E0FACF662319F061E00C94AB
:10027000782660E0FCCF8EBD00000DB407FEFDCFF8
:100280008EB50895CF93C82F61E00E943C2661E0AF
:100290008C2FCF910C9478260C94F2227F928F921F
:1002A0009F92AF92BF92CF92DF92EF92FF920F9305
:1002B0001F93CF93DF93D82EB62EC72EE42EC22FD6
:1002C00080917C03882381F09FB7F89480917C0310
:1002D000813051F58DB380937A032DB380917B03E8
:1002E000809582238DBB9FBF80E58CBD1DBC60E0E7
:1002F0008D2D0E947826F12CC23009F43AC0C3300B
:10030000B1F0C13009F04CC0CB2DDC2D5801C50136
:10031000801B910B8E159F050CF051C08991ABDFAE
:10032000F50181935F01F3CF90937A03DDCFCB2D5D
:10033000DC2DB12CA12CAE14BF040CF040C0888180
:100340009980CA807B80249696DF882E892D93DF42
:10035000982E8C2D90DFC82E872D8DDFF80180829E
:100360009182C28283830C5F1F4FFFEFAF1ABF0AD7
:10037000E2CFCB2DDC2DB12CA12CAE14BF04FCF4AC
:1003800088819980229677DFC82E892D74DFF80145
:10039000C08281830E5F1F4FFFEFAF1ABF0AEDCF00
:1003A000CB2DDC2D5801C501801B910B8E159F05AF
:1003B00034F4899160DFF50181935F01F4CF61E04E
:1003C0008D2D0E94782680917C03882351F09FB761
:1003D000F89420917C0380917A03213081F48DBBC5
:1003E0009FBFDF91CF911F910F91FF90EF90DF9012
:1003F000CF90BF90AF909F908F907F9008958FBFC8
:10040000F0CF20917C03222381F03FB7F894209114
:100410007C03213069F42DB320937A034DB32091EE
:100420007B03209524232DBB3FBF8CBD9DBD08952C
:1004300030937A03FACF80917C03882361F09FB7D1
:10044000F89420917C0380917A03213019F48DBBBC
:100450009FBF08958FBF0895CF93C82F80914F03FA
:1004600090915003CEDF60E08AE00E94782683E01E
:1004700002DF8C2F00DF80E0FEDEC82F61E08AE023
:100480000E947826D8DF8C2FCF910895CF93C82F64
:1004900080914F0390915003B4DF60E08AE00E94A6
:1004A000782682E0E8DE8FE0E6DE8C2FE4DE61E095
:1004B0008AE00E947826CF91BECFCF93C82F80913B
:1004C0004F03909150039DDF60E08AE00E94782600
:1004D00085E0D1DE8CE2CFDE8C2FCDDE80E0CBDE7E
:1004E00061E08AE00E947826CF91A5CFBF92CF929B
:1004F000DF92EF92FF920F931F93CF93DF938CE2E3
:10050000ABDF882371F185FF14C08DE2A5DF90E099
:100510009C013595279535952795227064E0959532
:1005200087956A95E1F78C70822B80933E0380EE6D
:10053000C4DF8CE291DF80FD1EC011E081FD1CC094
:100540008FEF9FEFDC0180934B0390934C03A093BC
:100550004D03B0934E0310924A0310924903109238
:100560004703DF91CF911F910F91FF90EF90DF90A4
:10057000CF90BF90089510E0C12FC295C07FD2E602
:10058000DC0F8D2F69DF83FB882780F980934A0376
:1005900081E68C0F61DFC82E8D2F5EDF98E0C99E4B
:1005A0006001112490E045E0959587954A95E1F723
:1005B000C82AD92A05E60C0F80914A030D2C000C9D
:1005C000EE08FF08882309F4B5C08D2F45DFB82E4B
:1005D00083E68C0F41DFD82F84E68C0F3DDF4B2D57
:1005E00050E070E060E0BA015527442744275527C2
:1005F0006370772722E1CC0CDD1CEE1CFF1C2A95D2
:10060000D1F7C82A4C295D296E297F29CD2ED12CFE
:10061000DC2CCC24F12CE12C4C295D296E297F297E
:1006200040934B0350934C0360934D0370934E03E0
:10063000802F12DF86FB882780F980934903802F63
:100640000BDF8F708093480390914903992309F43D
:100650007EC01092470381E001C0880F1A95EAF727
:100660002CDFC0904B03D0904C03E0904D03F090F2
:100670004E03C0925403D0925503E0925603F09279
:10068000570381E08093520350914A0350935303E0
:100690004091480340935803609149036093590384
:1006A00010925A032091470330E090E080E0FC0173
:1006B000EE5AFC4F821793070CF061C0DC01A15C7D
:1006C000BC4F7C91718701968830910581F78091AC
:1006D000650390916603A0916703B0916803C81603
:1006E000D906EA06FB0609F03CCF80916403581353
:1006F00038CF80916903481334CF81E0809363033E
:10070000509364034093690360936A0310926B03F0
:1007100090E080E0FC01ED59FC4F821793078CF5C7
:10072000DC01A15CBC4F4C9141870196883091055A
:1007300089F717CFC0924B03D0924C03E0924D0340
:10074000F0924E038D2F88DE8295817076CF809354
:100750004703CA598FE3E82E83E0F82E2091470320
:10076000C7018F5393402817190609F00CF473CF73
:100770008C2F72DEF70181937F01CF5FEFCF11865F
:10078000A2CF1186D2CFCF92DF92EF92FF92CF937A
:10079000DF93CDB7DEB7C850D1400FB6F894DEBFB7
:1007A0000FBECDBF28E031E0E0E2F2E0DE011196BD
:1007B00001900D9221503040D9F7FE01319630E082
:1007C00020E0C080D180E280F380A8E0CA16D10486
:1007D000E104F10471F5C480D580E680F780BDE7BF
:1007E000CB16D104E104F10421F5ABE0A29FF001A6
:1007F000A39FF00D1124389621E030E02C0F3D1F0F
:10080000E20FF31F2081DC012C938181DB018C93AB
:100810008281FA018083C85FDE4F0FB6F894DEBF95
:100820000FBECDBFDF91CF91FF90EF90DF90CF90C3
:1008300008952F5F3F4F3B962831310511F6EBCFDE
:100840008F929F92AF92BF92CF92DF92EF92FF92E0
:100850000F931F93CF93DF93CDB7DEB7E1E0DC01B9
:10086000EC93FB011082DA011D921D921D921C92E5
:100870001397F9011082118212821382D8011D92FE
:100880001D921D921C921397F7011082D6011D92A2
:100890001D921D921C921397F501108211821282F3
:1008A0001382D4011D921D921D921C921397E88908
:1008B000F9891082118212821382EA89FB891082DF
:1008C000118212821382DF91CF911F910F91FF90BD
:1008D000EF90DF90CF90BF90AF909F908F90089552
:1008E00080913D03089581E080933D03089580E861
:1008F000CDDD8FE0B1DD8038D9F480E0C7DD8FE059
:10090000ABDD811115C080913C03811111C081E0E4
:1009100080933C0360E082E00E943C2680E00E94DD
:10092000242350E040E066E772E080E00C94592315
:1009300008954F925F926F927F92AF92BF92CF9243
:10094000DF92EF920F931F934090650350906603E0
:10095000609067037090680346165706680679062C
:10096000D9F4809164038E1117C0FA0190E080E001
:10097000DC01AD59BC4F19962C912193019688301A
:100980009105B1F780916303F801808380916A0338
:10099000F60180831092630380913E03F50180830A
:1009A0001F910F91EF90DF90CF90BF90AF907F900D
:1009B0006F905F904F9008953091510351E1359FB2
:1009C000F0011124ED59FC4F628373838483958376
:1009D0004183268381E0830F8093510308958AE049
:1009E0000895EFE4F3E080E5808311820895FC012F
:1009F00091E08091A706811190E091830895CF92B4
:100A0000DF92EF92FF926B017C019F7720E030E054
:100A100040E859E50E94562187FF2BC020E030E0D6
:100A200040E05FE3C701B6010E948B2287FD0EC044
:100A300020E030E040E05FE3C701B6010E94DF2024
:100A4000FF90EF90DF90CF900C94C32120E030E036
:100A500040E05FEBC701B6010E948B22181684F4B8
:100A600020E030E0A901C701B6010E948F226B018E
:100A70007C01C701B601FF90EF90DF90CF90089501
:100A800020E030E040E05FE3C701B6010E94DE20D5
:100A9000FF90EF90DF90CF900C9443214F925F92A4
:100AA0006F927F928F929F92AF92BF92EF92FF923E
:100AB0000F931F93CF93DF9300D0CDB7DEB78C0198
:100AC0007B01FC0181819281A381B48198012A5D1F
:100AD0003F4F59010197A105B10509F445C01582A1
:100AE00081E090E0A0E0B0E081839283A383B483AF
:100AF00086839783A087B18783E090E0A0E0B0E091
:100B000082879387A487B5873E9681E090E0A0E036
:100B1000B0E081939193A193B193EA15FB05C9F7D6
:100B2000D80196966D917D918D919C91999767DFF3
:100B30002B013C0120E030E040E853E40E945621C4
:100B400087FF84C020E030E0A901C301B2010E9408
:100B50008B2287FD7DC0C301B2010E945A21862FDE
:100B600091DB81E0F801858381E08093300B93E095
:100B70009093310B8093320B8093330B8093340B23
:100B80008093350B8093360B8093370BF8013696A4
:100B900020E33BE0C9014F01D4014D905D906D9081
:100BA0007D904D01DC014D91CD01042E000C550BC3
:100BB000660B770B441655066606770609F44AC09D
:100BC000D9018D919D01082E000C990BAA0BBB0B2E
:100BD00081939193A193B193AE16BF0689F7F80163
:100BE00066A177A180A591A50ADF4B015C0120E0F9
:100BF00030E040E853E40E94562187FF30C020E0F7
:100C000030E0A901C501B4010E948B2287FD29C0F3
:100C1000C501B4010E945A21862F8E010F5F1F4F1C
:100C200021E043E0B7013ADB0F900F900F90DF9186
:100C3000CF911F910F91FF90EF90BF90AF909F9039
:100C40008F907F906F905F904F9008958FEF88CF37
:100C500080E086CFA814B90409F09ECFC0CF8FEFF3
:100C6000DCCF80E0DACF8F929F92AF92BF92CF928B
:100C7000DF92EF92FF920F931F93CF93DF93CDB745
:100C8000DEB72E970FB6F894DEBF0FBECDBF8C0136
:100C9000FC0187819085A185B2850197A105B105E9
:100CA00009F458C0138681E090E0A0E0B0E08783AB
:100CB0009087A187B2878093280990932909A093F0
:100CC0002A09B0932B0983E090E0A0E0B0E0809384
:100CD0002C0990932D09A0932E09B0932F09E0E3DE
:100CE000F9E081E090E0A0E0B0E081939193A193DE
:100CF000B19329E0E834F207C1F780E2E8E2F9E0D5
:100D0000D8011C9601900D928A95E1F7D8019C9626
:100D10006D917D918D919C919F9771DE6B017C010E
:100D200020E030E040E853E40E94562187FF88C06D
:100D300020E030E0A901C701B6010E948B2287FDA7
:100D400081C0C701B6010E945A21862F9BDA81E03B
:100D5000F801838781E0898393E09A838B838C8376
:100D60008D838E838F838887F8013C96CE01019610
:100D70009801245D3F4F7C016F01D6018D909D90BD
:100D8000AD90BD906D01D7014D917D01042E000CF9
:100D9000550B660B770B84169506A606B70609F465
:100DA00053C0DC014D91CD01042E000C550B660B98
:100DB000770B41935193619371932E173F0789F7F6
:100DC00083E0898780E38A871B86F80164A575A57F
:100DD00086A597A514DE6B017C0120E030E040E899
:100DE00053E40E94562187FF34C020E030E0A9017F
:100DF000C701B6010E948B2287FD2DC0C701B60135
:100E00000E945A21862F8E01045F1F4F21E043E08C
:100E1000BE01675F7F4F42DA8E852E960FB6F8943B
:100E2000DEBF0FBECDBFDF91CF911F910F91FF901D
:100E3000EF90DF90CF90BF90AF909F908F900895EC
:100E40008FEF84CF80E082CF2C153D0509F095CF40
:100E5000B7CF8FEFD8CF80E0D6CF2F923F924F926F
:100E60005F927F928F929F92AF92BF92CF92DF92CA
:100E7000EF92FF920F931F93CF93DF9300D000D098
:100E80001F921F92CDB7DEB77C01DC0115961C9234
:100E9000812C912C54018394FC0181829282A38243
:100EA000B4829DDD682F70E090E080E00E94862192
:100EB000D7019C966D937D938D939C939F9710DDA6
:100EC000782E8111E1C2F70187819085A185B285D5
:100ED0000197A105B10509F458C013868782908651
:100EE000A186B2868092080A9092090AA0920A0A04
:100EF000B0920B0A80920C0A90920D0AA0920E0AF0
:100F0000B0920F0AE0E1FAE081E090E0A0E0B0E00A
:100F100081939193A193B1932AE0E832F207C1F74C
:100F200080E2E8E0FAE0D7011C9601900D928A95E4
:100F3000E1F7D7019C966D917D918D919C919F9742
:100F40005EDD4B015C018092480B9092490BA092B0
:100F50004A0BB0924B0B20E030E040E853E40E9493
:100F6000562187FFACC220E030E0A901C501B401E1
:100F70000E948B2287FDA5C2C501B4010E945A219F
:100F8000862F80D981E0F70183876701FCE0CF0ECF
:100F9000D11C57012CE2A20EB11CF6018191919156
:100FA000A191B1910197A105B10509F48CC2F60197
:100FB00081E090E0A0E0B0E081939193A193B193A0
:100FC000EA15FB05C9F780EC8887D7019C966D91DF
:100FD0007D918D919C919F9712DD1B012C01209298
:100FE000480B3092490B40924A0B50924B0B20E039
:100FF00030E040E853E40E94562187FF69C220E0B8
:1010000030E0A901C201B1010E948B2287FD62C2BA
:10101000C201B1010E945A21862F8E01095F1F4F24
:1010200021E041E0BE01685F7F4F38D9F701878139
:101030009085A185B2850197A105B10509F461C02C
:10104000138681E090E0A0E0B0E087839087A187DD
:10105000B2878093280A9093290AA0932A0AB09312
:101060002B0A83E090E0A0E0B0E080932C0A9093FC
:101070002D0AA0932E0AB0932F0AE0E3FAE088E449
:101080009AE041E050E060E070E041935193619359
:1010900071938E179F07C9F780E2E8E2FAE0D70163
:1010A0001C9601900D928A95E1F7D7019C966D915F
:1010B0007D918D919C919F97A2DC1B012C01209228
:1010C000480B3092490B40924A0B50924B0B20E058
:1010D00030E040E853E40E94562187FFFDC120E044
:1010E00030E0A901C201B1010E948B2287FDF6C147
:1010F000C201B1010E945A21862FC4D881E0F701B4
:10110000838781E08093200B93E09093210B809361
:10111000220B8093230B8093240B8093250B8093C9
:10112000260B8093270B30E2832E3BE0932E940115
:10113000F6014191519161917191D9018D919D017A
:10114000082E000C990BAA0BBB0B481759076A070E
:101150007B0709F4C5C1F60120E23BE0D9018D917E
:101160009D01082E000C990BAA0BBB0B8193919348
:10117000A193B193EA15FB0589F782E08C838FE098
:101180008D8380E88E83F70164A575A586A597A554
:1011900036DC1B012C012092480B3092490B409207
:1011A0004A0B50924B0B20E030E040E853E40E94A1
:1011B000562187FF9AC120E030E0A901C201B101A8
:1011C0000E948B2287FD93C1C201B1010E945A2166
:1011D000862F8E010F5F1F4F21E043E0BE016C5F41
:1011E0007F4F5CD8F70187819085A185B2850197F3
:1011F000A105B10509F461C0138681E090E0A0E08B
:10120000B0E087839087A187B2878093480A909344
:10121000490AA0934A0AB0934B0A83E090E0A0E009
:10122000B0E080934C0A90934D0AA0934E0AB0937D
:101230004F0AE0E5FAE081E090E0A0E0B0E08193C1
:101240009193A193B1932AE0E836F207C1F780E2C7
:10125000E8E4FAE0D7011C9601900D928A95E1F737
:10126000D7019C966D917D918D919C919F97C7DB45
:101270001B012C012092480B3092490B40924A0BE3
:1012800050924B0B20E030E040E853E40E9456219E
:1012900087FF2FC120E030E0A901C201B1010E9407
:1012A0008B2287FD28C1C201B1010E945A21862FDD
:1012B0000E94420181E0F701838781E08093200B47
:1012C00093E09093210B8093220B8093230B8093C8
:1012D000240B8093250B8093260B8093270B20E211
:1012E0003BE0F6014191519161917191D9018D914C
:1012F0009D01082E000C990BAA0BBB0B4817590730
:101300006A077B0709F4F9C0F40181914F01082EA7
:10131000000C990BAA0BBB0BF60181939193A1933F
:10132000B1936F01EA15FB0579F783E08C838FE0B9
:101330008D8380E88E83D7019C966D917D918D91F0
:101340009C919F975CDB4B015C018092480B9092D3
:10135000490BA0924A0BB0924B0B20E030E040E8E2
:1013600053E40E94562187FFCDC020E030E0A90160
:10137000C501B4010E948B2287FD05C0C501B401DF
:101380000E945A21762E8E010F5F1F4F21E043E00D
:10139000BE016C5F7F4F872D0E944E018B8180388C
:1013A00009F071C087010A5F1F4F1C821D821E82D7
:1013B000AE014A5F5F4FBE016B5F7F4FCE01049667
:1013C000E2D98C81811106C09D81911103C09E815B
:1013D0009923F9F022E0D22ED9829AE29A838B8364
:1013E000BE016F5F7F4FC80159DBD98289E28A83D2
:1013F0008D818B83BE016F5F7F4FC8014FDBD98228
:1014000088E28A838E818B83BE016F5F7F4FC80124
:1014100045DB82E0D82ED9828BE28A8383E28B83FC
:10142000BE016F5F7F4FC80139DBD9828CE08A83B0
:101430001B82BE016F5F7F4FC80130DBD9828DE018
:101440008A831B82BE016F5F7F4FC80127DBD98271
:1014500090E6C92ECA82CB82BE016F5F7F4FC80162
:101460001DDBD98280E78A83CB82BE016F5F7F4F0D
:10147000C80114DBD9828FE08A831B82BE016F5FB3
:101480007F4FC8010BDB2FDA81E0F70185832896B7
:101490000FB6F894DEBF0FBECDBFDF91CF911F9185
:1014A0000F91FF90EF90DF90CF90BF90AF909F9003
:1014B0008F907F905F904F903F902F9008958FEF87
:1014C00060CD80E05ECDEA15FB0509F067CD7BCDF0
:1014D0008FEFA3CD80E0A1CD8FEF0FCE80E00DCEBA
:1014E000EA15FB0509F025CE48CE8FEF72CE80E0DD
:1014F00070CE8FEFDDCE80E0DBCEEA15FB0509F084
:10150000F1CE13CF77247A943ECFAF92BF92CF9291
:10151000DF92EF92FF920F931F93CF93DF9300D050
:1015200000D0CDB7DEB78091060690910706A09156
:101530000806B09109060197A105B10509F467C035
:1015400010920A0681E090E0A0E0B0E080930606E9
:1015500090930706A0930806B09309068093E809C4
:101560009093E909A093EA09B093EB0983E090E036
:10157000A0E0B0E08093EC099093ED09A093EE0910
:10158000B093EF09E0EFF9E081E090E0A0E0B0E097
:1015900081939193A193B1932AE0E830F207C1F7C8
:1015A00080E2E8EEF9E0ABE0B6E001900D928A95BA
:1015B000E1F760912B0670912C0680912D06909199
:1015C0002E061DDA6B017C01C092440BD092450BB4
:1015D000E092460BF092470B20E030E040E853E405
:1015E0000E94562187FF9DC020E030E0A901C7017D
:1015F000B6010E948B2287FD96C0C701B6010E94EA
:101600005A21862F0E94420181E080930A0681E0E0
:101610008093180B93E09093190B80931A0B80938F
:101620001B0B80931C0B80931D0B80931E0B8093D0
:101630001F0B8BE096E0A8E1BBE00BE216E09D01FA
:101640005C01F501C190D190E190F1905F01F90149
:1016500041919F01042E000C550B660B770BC416AD
:10166000D506E606F70609F460C020E23BE04D919E
:10167000042E000C550B660B770BFC014193519324
:1016800061937193CF012A173B0789F783E0898320
:101690008FE08A8380E88B8360912B0670912C0603
:1016A00080912D0690912E06AAD96B017C01C092E3
:1016B000440BD092450BE092460BF092470B20E092
:1016C00030E040E853E40E94562187FF33C020E019
:1016D00030E0A901C701B6010E948B2287FD2CC012
:1016E000C701B6010E945A21862F8E010C5F1F4F41
:1016F00021E043E0BE016F5F7F4F0E944E018E816B
:1017000026960FB6F894DEBF0FBECDBFDF91CF9106
:101710001F910F91FF90EF90DF90CF90BF90AF900F
:1017200008958FEF6FCF80E06DCF0A151B0509F08C
:1017300088CFACCF8FEFD9CF80E0D7CFAF92BF9219
:10174000CF92DF92EF92FF920F931F93CF93DF938D
:1017500000D000D0CDB7DEB7809106069091070685
:10176000A0910806B09109060197A105B10509F4F9
:1017700067C010920A0681E090E0A0E0B0E080939C
:10178000060690930706A0930806B0930906809377
:10179000C80A9093C90AA093CA0AB093CB0A83E0FF
:1017A00090E0A0E0B0E08093CC0A9093CD0AA093A3
:1017B000CE0AB093CF0AE0EDFAE081E090E0A0E03D
:1017C000B0E081939193A193B1932AE0E83EF207B0
:1017D000C1F780E2E8ECFAE0ABE0B6E001900D92F0
:1017E0008A95E1F760912B0670912C0680912D0669
:1017F00090912E0604D96B017C01C0924C0BD092C3
:101800004D0BE0924E0BF0924F0B20E030E040E8A1
:1018100053E40E94562187FF9CC020E030E0A901DC
:10182000C701B6010E948B2287FD95C0C701B60192
:101830000E945A21862F0E94420181E080930A066D
:1018400081E08093280B93E09093290B80932A0BDF
:1018500080932B0B80932C0B80932D0B80932E0B5E
:1018600080932F0B8BE096E0A8E2BBE00BE216E042
:101870009D015C01F501C190D190E190F1905F0173
:10188000F90141919F01042E000C550B660B770B5B
:10189000C416D506E606F70609F45FC020E33BE070
:1018A0004D91042E000C550B660B770BFC014193F8
:1018B000519361937193CF012A173B0789F782E017
:1018C0008C838FE08D8380E88E8360912B067091EE
:1018D0002C0680912D0690912E0691D86B017C01EB
:1018E000C0924C0BD0924D0BE0924E0BF0924F0BEE
:1018F00020E030E040E853E40E94562187FF32C0E8
:1019000020E030E0A901C701B6010E948B2287FDCB
:101910002BC0C701B6010E945A21862F8E010F5F8E
:101920001F4F21E043E0BE016C5F7F4F0E944E01DC
:1019300026960FB6F894DEBF0FBECDBFDF91CF91D4
:101940001F910F91FF90EF90DF90CF90BF90AF90DD
:1019500008958FEF70CF80E06ECF0A151B0509F058
:1019600089CFADCF8FEFDACF80E0D8CF8F929F9223
:10197000AF92BF92CF92DF92EF92FF920F931F939D
:10198000CF93DF93CDB7DEB761970FB6F894DEBF84
:101990000FBECDBF8091A7068F5F843008F0EFC4E3
:1019A0008093A706C0900302D0900402E090050245
:1019B000F0900602A701960160910106709102065F
:1019C00080910306909104060E945621882341F0DD
:1019D000C0920106D0920206E0920306F09204063D
:1019E0001092500B1092510B1092520B1092530BFD
:1019F0001092540B1092550B1092560B1092570BDD
:101A0000CE010F965C01DE0150966D01E12C8E0136
:101A10000F5E1F4F28E040E55BE064EE71E080E080
:101A200090E00E949904E0EBF6E088EFDF011D9260
:101A30008A95E9F760910E0270E090E080E00E94E4
:101A400086216093A8067093A9068093AA069093B6
:101A5000AB0660910F0270E090E080E00E9486216A
:101A60006093AC067093AD068093AE069093AF067C
:101A700012E0198781E38A871B87BE01675F7F4F6A
:101A800087E396E00BD8198782E38A8780EC8B87FF
:101A9000BE01675F7F4F87E396E000D8198783E335
:101AA0008A871B86BE01675F7F4F87E396E00E94AF
:101AB0004E05198784E38A871B86BE01675F7F4FC7
:101AC00087E396E00E944E05198785E38A871B8786
:101AD000BE01675F7F4F87E396E00E944E0519873E
:101AE00086E38A876091A8067091A9068091AA066C
:101AF0009091AB060E94FF046B017C01C092380BF1
:101B0000D092390BE0923A0BF0923B0B20E030E0A0
:101B100040E853E40E94562187FF36C420E030E0BD
:101B2000A901C701B6010E948B2287FD2BC4C70102
:101B3000B6010E945A216B87BE01675F7F4F87E322
:101B400096E00E944E0582E0898787E38A8760914C
:101B5000AC067091AD068091AE069091AF060E94E2
:101B6000FF046B017C01C092380BD092390BE092DC
:101B70003A0BF0923B0B20E030E040E853E40E9447
:101B8000562187FF06C420E030E0A901C701B60155
:101B90000E948B2287FDFBC3C701B6010E945A2118
:101BA0006B87BE01675F7F4F87E396E00E944E051B
:101BB00082E0898780E38A8788E08B87BE01675F40
:101BC0007F4F87E396E00E944E0581E396E04BD875
:101BD00081E396E048D884FFDEC180913806909179
:101BE0003906A0913A06B0913B060197A105B105CF
:101BF00009F468C010923C0681E090E0A0E0B0E0FB
:101C00008093380690933906A0933A06B0933B062A
:101C10008093A8089093A908A093AA08B093AB0852
:101C200084E090E0A0E0B0E08093AC089093AD0831
:101C3000A093AE08B093AF08E0EBF8E081E090E04D
:101C4000A0E0B0E081939193A193B19328E0E83CA8
:101C5000F207C1F780E2E8EAF8E0ADE3B6E0019010
:101C60000D928A95E1F760915D0670915E06809114
:101C70005F06909160060E94FF046B017C01C09298
:101C8000380BD092390BE0923A0BF0923B0B20E0EC
:101C900030E040E853E40E94562187FF7DC320E0F6
:101CA00030E0A901C701B6010E948B2287FD76C3EF
:101CB000C701B6010E945A21862F0E94420181E08D
:101CC00080933C0681E08093080B94E09093090B8D
:101CD00080930A0B80930B0B80930C0B80930D0B5E
:101CE00080930E0B80930F0B2DE3C22E26E0D22E95
:101CF00038E0E32E3BE0F32E9701F601419151913C
:101D000061917191D9018D919D01082E000C990B63
:101D1000AA0BBB0B481759076A077B0709F440C396
:101D20002DE336E0E8E0FBE08191482F880F550B6A
:101D3000660B770BD9014D935D936D937D939D0158
:101D4000BBE0E031FB0781F785E08D838FE08E8378
:101D500080E18F83888760915D0670915E06809137
:101D60005F06909160060E94FF044B015C01809227
:101D7000380B9092390BA0923A0BB0923B0B20E0BB
:101D800030E040E853E40E94562187FF0FC320E073
:101D900030E0A901C501B4010E948B2287FD08C370
:101DA000C501B4010E945A21862F8E010F5F1F4F7B
:101DB00021E044E0BE016B5F7F4F0E944E018091A5
:101DC000380690913906A0913A06B0913B060197EA
:101DD000A105B10509F469C010923C0681E090E0CC
:101DE000A0E0B0E08093380690933906A0933A06BD
:101DF000B0933B068093C8089093C908A093CA0883
:101E0000B093CB0884E090E0A0E0B0E08093CC08F1
:101E10009093CD08A093CE08B093CF08E0EDF8E002
:101E200088EE98E041E050E060E070E0419351932B
:101E3000619371938E179F07C9F780E2E8ECF8E091
:101E4000ADE3B6E001900D928A95E1F760915D06F1
:101E500070915E0680915F06909160060E94FF047B
:101E60004B015C018092380B9092390BA0923A0B97
:101E7000B0923B0B20E030E040E853E40E94562152
:101E800087FF98C220E030E0A901C501B4010E949B
:101E90008B2287FD91C2C501B4010E945A21862F71
:101EA0000E94420181E080933C0681E08093080B10
:101EB00094E09093090B80930A0B80930B0B809313
:101EC0000C0B80930D0B80930E0B80930F0B28E06F
:101ED0003BE0EDE3F6E04191519161917191D901BF
:101EE0008D919D01082E000C990BAA0BBB0B481776
:101EF00059076A077B0709F461C2F70181917F01E5
:101F0000082E000C990BAA0BBB0BF6018193919341
:101F1000A193B1936F01F0E1EF16FBE0FF0669F7C3
:101F200085E08D838FE08E8380E18F8318866091BA
:101F30005D0670915E0680915F06909160060E943A
:101F4000FF046B017C01C092380BD092390BE092F8
:101F50003A0BF0923B0B20E030E040E853E40E9463
:101F6000562187FF31C220E030E0A901C701B60148
:101F70000E948B2287FD2AC2C701B6010E945A2106
:101F8000862F8E010F5F1F4F21E044E0BE016B5F83
:101F90007F4F0E944E018091380690913906A091A2
:101FA0003A06B0913B060197A105B10509F468C056
:101FB00010923C0681E090E0A0E0B0E0809338060B
:101FC00090933906A0933A06B0933B068093E808B5
:101FD0009093E908A093EA08B093EB0884E090E0BE
:101FE000A0E0B0E08093EC089093ED08A093EE0899
:101FF000B093EF08E0EFF8E081E090E0A0E0B0E01F
:1020000081939193A193B19329E0E830F207C1F74E
:1020100080E2E8EEF8E0ADE3B6E001900D928A953B
:10202000E1F760915D0670915E0680915F06909188
:1020300060060E94FF046B017C01C092380BD092B5
:10204000390BE0923A0BF0923B0B20E030E040E895
:1020500053E40E94562187FFBBC120E030E0A90174
:10206000C701B6010E948B2287FDB4C1C701B6012A
:102070000E945A21862F0E94420181E080933C06F3
:1020800081E08093080B94E09093090B80930A0BF6
:1020900080930B0B80930C0B80930D0B80930E0B96
:1020A00080930F0B8DE3C82E86E0D82E98E0E92EA2
:1020B0009BE0F92E4DE556E09701F6018190919055
:1020C000A190B190D9018D919D01082E000C990B22
:1020D000AA0BBB0B88169906AA06BB0609F47CC19D
:1020E0002DE336E0E8E0FBE08191482F880F550BA7
:1020F000660B770BD9014D935D936D937D939D0195
:10210000BBE0E031FB0781F785E08D838CE28E83B5
:1021100084E08F83188660915D0670915E068091E1
:102120005F06909160060E94FF044B015C01809263
:10213000380B9092390BA0923A0BB0923B0B20E0F7
:1021400030E040E853E40E94562187FF4AC120E076
:1021500030E0A901C501B4010E948B2287FD43C173
:10216000C501B4010E945A21862F8E010F5F1F4FB7
:1021700021E044E0BE016B5F7F4F0E944E018091E1
:10218000380690913906A0913A06B0913B06019726
:10219000A105B10509F468C010923C0681E090E009
:1021A000A0E0B0E08093380690933906A0933A06F9
:1021B000B0933B068093080990930909A0930A09FC
:1021C000B0930B0983E090E0A0E0B0E080930C09AD
:1021D00090930D09A0930E09B0930F09E0E1F9E087
:1021E00081E090E0A0E0B0E081939193A193B1935E
:1021F00029E0E832F207C1F780E2E8E0F9E0ADE378
:10220000B6E001900D928A95E1F760915D067091BC
:102210005E0680915F06909160060E94FF044B016C
:102220005C018092380B9092390BA0923A0BB092DD
:102230003B0B20E030E040E853E40E94562187FF4A
:10224000D4C020E030E0A901C501B4010E948B2276
:1022500087FDCDC0C501B4010E945A21862F0E947E
:10226000420181E080933C0681E08093080B93E07B
:102270009093090B80930A0B80930B0B80930C0BAC
:1022800080930D0B80930E0B80930F0B28E03BE0A7
:10229000EDE3F6E04191519161917191D9018D91F8
:1022A0009D01082E000C990BAA0BBB0B4817590770
:1022B0006A077B0709F49DC0F70181917F01082E11
:1022C000000C990BAA0BBB0BF60181939193A19380
:1022D000B1936F01F0E1EF16FBE0FF0669F783E0D1
:1022E00089878DE28A871B8660915D0670915E0604
:1022F00080915F06909160060E94FF046B017C0153
:10230000C092380BD092390BE0923A0BF0923B0B13
:1023100020E030E040E853E40E94562187FF6FC080
:1023200020E030E0A901C701B6010E948B2287FDA1
:1023300068C0C701B6010E945A21862F8E01045F32
:102340001F4F21E043E0BE01675F7F4F0E944E01B7
:1023500081E396E00E94330661960FB6F894DEBFE3
:102360000FBECDBFDF91CF911F910F91FF90EF90E6
:10237000DF90CF90BF90AF909F908F900895109274
:10238000A70610CB1B86D8CB8FEF8B87D5CB1B86B0
:1023900008CC8FEF8B8705CC8FEF8FCC80E08DCC76
:1023A00086E0ED35F80709F0A9CCCECC8FEFFDCC57
:1023B00080E0FBCC8FEF74CD80E072CD86E0ED3510
:1023C000F80709F088CDACCD8FEFDBCD80E0D9CD1B
:1023D0008FEF51CE80E04FCE4E175F0709F06ECEE3
:1023E00093CE8FEFC2CE80E0C0CE8FEF38CF80E0AB
:1023F00036CF86E0ED35F80709F04CCF70CF8FEF80
:102400009DCF80E09BCF2F923F924F925F926F9231
:102410007F92BF92CF92DF92EF92FF920F931F9322
:10242000CF93DF93CDB7DEB72E970FB6F894DEBF0C
:102430000FBECDBF61E090919D068091010298177B
:1024400008F460E08DE00E94340180919D06909137
:102450000D02890F80939D06B0909E0680919F0685
:102460008B1508F0A1C4E0EBF7E088EFDF011D92C7
:102470008A95E9F760910A0270E090E080E00E949E
:1024800086216093A8077093A9078093AA07909369
:10249000AB0760910B0270E090E080E00E94862123
:1024A0006093AC077093AD078093AE079093AF072E
:1024B00012E0198781E38A871B86BE01675F7F4F21
:1024C00089E696E00E944E05198782E38A871B867B
:1024D000BE01675F7F4F89E696E00E944E0519872F
:1024E00083E38A871B86BE01675F7F4F89E696E09C
:1024F0000E944E05198784E38A871B86BE01675FA9
:102500007F4F89E696E00E944E05198785E38A870A
:102510001B87BE01675F7F4F89E696E00E944E05EC
:10252000198786E38A876091A8077091A90780912F
:10253000AA079091AB070E94FF046B017C01C09237
:102540003C0BD0923D0BE0923E0BF0923F0B20E013
:1025500030E040E853E40E94562187FF4DC420E05C
:1025600030E0A901C701B6010E948B2287FD42C459
:10257000C701B6010E945A216B87BE01675F7F4F7A
:1025800089E696E00E944E0582E0898787E38A8784
:102590006091AC077091AD078091AE079091AF0745
:1025A0000E94FF046B017C01C0923C0BD0923D0B5A
:1025B000E0923E0BF0923F0B20E030E040E853E425
:1025C0000E94562187FF1DC420E030E0A901C70109
:1025D000B6010E948B2287FD12C4C701B6010E947A
:1025E0005A216B87BE01675F7F4F89E696E00E94A4
:1025F0004E0582E0898780E38A8788E08B87BE0169
:10260000675F7F4F89E696E00E944E0583E696E07D
:102610000E94330683E696E00E94330684FFE3C1FE
:1026200080916A0690916B06A0916C06B0916D0640
:102630000197A105B10509F468C010926E0681E00A
:1026400090E0A0E0B0E080936A0690936B06A093C0
:102650006C06B0936D068093480990934909A09346
:102660004A09B0934B0984E090E0A0E0B0E0809389
:102670004C0990934D09A0934E09B0934F09E0E5A2
:10268000F9E081E090E0A0E0B0E081939193A19324
:10269000B19329E0E836F207C1F780E2E8E4F9E017
:1026A000AFE6B6E001900D928A95E1F760918F0652
:1026B0007091900680919106909192060E94FF047D
:1026C0006B017C01C0923C0BD0923D0BE0923E0B23
:1026D000F0923F0B20E030E040E853E40E945621A6
:1026E00087FF92C320E030E0A901C701B6010E9434
:1026F0008B2287FD8BC3C701B6010E945A21862F0A
:102700000E94420181E080936E0681E08093100B6D
:1027100094E09093110B8093120B8093130B809392
:10272000140B8093150B8093160B8093170B2FE6D9
:10273000622E26E0722E30E1E32E3BE0F32E4FE8CE
:10274000C42E46E0D42E9701F3014191519161913D
:102750007191D9018D919D01082E000C990BAA0B46
:10276000BB0B481759076A077B0709F451C348E1B7
:102770005BE02FE636E0E0E1FBE08191282E880F58
:10278000330844085508D9012D923D924D925D922F
:102790009D014E175F0789F785E08D838FE08E835B
:1027A00080E18F83888760918F0670919006809179
:1027B0009106909192060E94FF041B012C01209229
:1027C0003C0B30923D0B40923E0B50923F0B20E071
:1027D00030E040E853E40E94562187FF1EC320E00A
:1027E00030E0A901C201B1010E948B2287FD17C30D
:1027F000C201B1010E945A21862F8E010F5F1F4F27
:1028000021E044E0BE016B5F7F4F0E944E0180914A
:102810006A0690916B06A0916C06B0916D060197C7
:10282000A105B10509F469C010926E0681E090E03F
:10283000A0E0B0E080936A0690936B06A0936C06CC
:10284000B0936D068093680990936909A0936A0913
:10285000B0936B0984E090E0A0E0B0E080936C0955
:1028600090936D09A0936E09B0936F09E0E7F9E0CA
:1028700088E899E041E050E060E070E041935193D6
:10288000619371938E179F07C9F780E2E8E6F9E03C
:10289000AFE6B6E001900D928A95E1F760918F0660
:1028A0007091900680919106909192060E94FF048B
:1028B0001B012C0120923C0B30923D0B40923E0BB1
:1028C00050923F0B20E030E040E853E40E94562154
:1028D00087FFA7C220E030E0A901C201B1010E9438
:1028E0008B2287FDA0C2C201B1010E945A21862F0E
:1028F0000E94420181E080936E0681E08093100B7C
:1029000094E09093110B8093120B8093130B8093A0
:10291000140B8093150B8093160B8093170B20E1FB
:102920003BE0EFE6F6E04191519161917191D9015F
:102930008D919D01082E000C990BAA0BBB0B48171B
:1029400059076A077B0709F470C228E13BE0F701E9
:1029500081917F01082E000C990BAA0BBB0BF30190
:1029600081939193A193B1933F012E153F0579F780
:1029700085E08D838FE08E8380E18F831886609160
:102980008F067091900680919106909192060E9418
:10299000FF046B017C01C0923C0BD0923D0BE09296
:1029A0003E0BF0923F0B20E030E040E853E40E9401
:1029B000562187FF3FC220E030E0A901C701B601E0
:1029C0000E948B2287FD38C2C701B6010E945A219E
:1029D000862F8E010F5F1F4F21E044E0BE016B5F29
:1029E0007F4F0E944E0180916A0690916B06A091E4
:1029F0006C06B0916D060197A105B10509F469C097
:102A000010926E0681E090E0A0E0B0E080936A064C
:102A100090936B06A0936C06B0936D068093880923
:102A200090938909A0938A09B0938B0984E090E080
:102A3000A0E0B0E080938C0990938D09A0938E095B
:102A4000B0938F09E0E9F9E088EA99E041E050E0CD
:102A500060E070E041935193619371938E179F07EB
:102A6000C9F780E2E8E8F9E0AFE6B6E001900D9240
:102A70008A95E1F760918F0670919006809191069A
:102A8000909192060E94FF046B017C01C0923C0B66
:102A9000D0923D0BE0923E0BF0923F0B20E030E0F5
:102AA00040E853E40E94562187FFC8C120E030E08F
:102AB000A901C701B6010E948B2287FDC1C1C701D0
:102AC000B6010E945A21862F0E94420181E0809324
:102AD0006E0681E08093100B94E09093110B80932D
:102AE000120B8093130B8093140B8093150B809320
:102AF000160B8093170B8FE6C82E86E0D82E90E138
:102B0000E92E9BE0F92E9701F601419151916191D7
:102B10007191D9018D919D01082E000C990BAA0B82
:102B2000BB0B481759076A077B0709F48BC148E1BB
:102B30005BE02FE636E0E0E1FBE08191482E880F74
:102B4000550866087708D9014D925D926D927D9285
:102B50009D014E175F0789F785E08D838CE28E8398
:102B600084E08F83188660918F0670919006809123
:102B70009106909192060E94FF042B013C01409225
:102B80003C0B50923D0B60923E0B70923F0B20E04D
:102B900030E040E853E40E94562187FF59C120E00D
:102BA00030E0A901C301B2010E948B2287FD52C10E
:102BB000C301B2010E945A21862F8E010F5F1F4F61
:102BC00021E044E0BE016B5F7F4F0E944E01809187
:102BD0006A0690916B06A0916C06B0916D06019704
:102BE000A105B10509F468C010926E0681E090E07D
:102BF000A0E0B0E080936A0690936B06A0936C0609
:102C0000B0936D068093A8099093A909A093AA098F
:102C1000B093AB0983E090E0A0E0B0E08093AC0912
:102C20009093AD09A093AE09B093AF09E0EBF9E042
:102C300081E090E0A0E0B0E081939193A193B19303
:102C400029E0E83CF207C1F780E2E8EAF9E0AFE604
:102C5000B6E001900D928A95E1F760918F06709130
:102C6000900680919106909192060E94FF042B019C
:102C70003C0140923C0B50923D0B60923E0B709297
:102C80003F0B20E030E040E853E40E94562187FFEC
:102C9000E3C020E030E0A901C301B2010E948B2211
:102CA00087FDDCC0C301B2010E945A21862F0E9419
:102CB000420181E080936E0681E08093100B93E0E7
:102CC0009093110B8093120B8093130B8093140B32
:102CD0008093150B8093160B8093170B20E13BE03C
:102CE000EFE6F6E04191519161917191D9018D9199
:102CF0009D01082E000C990BAA0BBB0B4817590716
:102D00006A077B0709F4ACC028E13BE0F701819139
:102D10007F01082E000C990BAA0BBB0BF6018193C7
:102D20009193A193B1936F012E153F0579F783E03D
:102D300089878DE28A871B8660918F067091900645
:102D400080919106909192060E94FF046B017C0194
:102D5000C0923C0BD0923D0BE0923E0BF0923F0BA9
:102D600020E030E040E853E40E94562187FF7EC017
:102D700020E030E0A901C701B6010E948B2287FD47
:102D800077C0C701B6010E945A21862F8E01045FC9
:102D90001F4F21E043E0BE01675F7F4F0E944E015D
:102DA00083E696E00E94330690919D068091020290
:102DB000891720F48091090280939D068091080272
:102DC00080939E06B0929F062E960FB6F894DEBFB3
:102DD0000FBECDBFDF91CF911F910F91FF90EF906C
:102DE000DF90CF90BF907F906F905F904F903F901B
:102DF0002F9008951B86C1CB8FEF8B87BECB1B8690
:102E0000F1CB8FEF8B87EECB8FEF7ACC80E078CC55
:102E1000CE16DF0609F099CCBFCC8FEFEECC80E068
:102E2000ECCC8FEF65CD80E063CDCE16DF0609F0E8
:102E30007ACD9ECD8FEFCDCD80E0CBCD8FEF44CE40
:102E400080E042CEB6E0EF38FB0709F05ECE84CEDC
:102E50008FEFB3CE80E0B1CE8FEF29CF80E027CFC8
:102E600086E0EF38F80709F03DCF61CF8FEF8ECFC6
:102E700080E08CCF4F925F926F927F928F929F9261
:102E8000AF92BF92CF92DF92EF92FF920F931F9378
:102E9000CF93DF93CDB7DEB760970FB6F894DEBF60
:102EA0000FBECDBF84E090E00E94A61F8091860BEC
:102EB0009091870BA091880BB091890B80930302AE
:102EC00090930402A0930502B093060244EA56E0F0
:102ED00024E0FA0111922A95E9F74BEF55E029EA2F
:102EE000FA0111922A95E9F721E02093A006809338
:102EF000010690930206A0930306B0930406812C6A
:102F0000912C540183948092FC059092FD05A0922F
:102F1000FE05B092FF050E947004F82E0E94EF0497
:102F20008887682F70E090E080E00E94862160939F
:102F30002B0670932C0680932D0690932E06F1108D
:102F40003BC10091060610910706209108063091BA
:102F50000906013011052105310509F458C0109208
:102F60000A068092060690920706A0920806B09282
:102F700009068092C8099092C909A092CA09B09224
:102F8000CB098092CC099092CD09A092CE09B09243
:102F9000CF09E0EDF9E001E010E020E030E001933E
:102FA00011932193319349E0E83EF407C1F720E201
:102FB000E8ECF9E0ABE0B6E001900D922A95E1F77C
:102FC0000E94FF044B015C018092400B9092410BE8
:102FD000A092420BB092430B20E030E040E853E473
:102FE0000E94562187FFB7C120E030E0A901C5014A
:102FF000B4010E948B2287FDB0C1C501B4010E94BB
:103000005A21862F0E94420181E080930A06ABE09C
:10301000B6E0FD01419151916191719141305105AD
:103020006105710509F49BC141E050E060E070E08A
:103030004D935D936D937D9386E0AB32B807C1F7F6
:1030400080EC888760912B0670912C0680912D066C
:1030500090912E060E94FF044B015C018092400B70
:103060009092410BA092420BB092430B20E030E0D3
:1030700040E853E40E94562187FF77C120E030E00A
:10308000A901C501B4010E948B2287FD05C0C501BD
:10309000B4010E945A21F62E8E01095F1F4F21E0D4
:1030A00041E0BE01685F7F4F8F2D0E944E010E945C
:1030B0009E0B0E94850A803809F07CC01092780B24
:1030C0001092790B10927A0B4AE75BE069E77BE09C
:1030D00088E79BE00E94C3038091780B811108C0B0
:1030E0009091790B911104C090917A0B992361F121
:1030F00012E010937B0B9AE290937C0B80937D0BF4
:103100006BE77BE085E096E00E944E0510937B0B19
:1031100089E280937C0B8091790B80937D0B6BE728
:103120007BE085E096E00E944E0510937B0B88E2E1
:1031300080937C0B80917A0B80937D0B6BE77BE017
:1031400085E096E00E944E0512E010937B0B8BE227
:1031500080937C0B83E280937D0B6BE77BE085E0C3
:1031600096E00E944E0510937B0B8CE080937C0BC5
:1031700010927D0B6BE77BE085E096E00E944E05A8
:1031800010937B0B8DE080937C0B10927D0B6BE793
:103190007BE085E096E00E944E0510937B0B8FE06C
:1031A00080937C0B10927D0B6BE77BE085E096E0D3
:1031B0000E944E050E94730484E79BE09F938F93C7
:1031C00080E79BE09F938F934CE6842E4BE0942EF8
:1031D00058E6A52E5BE0B52E64E6C62E6BE0D62E33
:1031E000DE0114967D0100E61BE02CE53BE048E59E
:1031F0005BE0BE016B5F7F4FCE0106960E9420040C
:103200000E949E0B0E94850A0F900F900F900F90C6
:10321000803839F58E81813009F0AAC002E0098337
:1032200010E61A831B83BE016F5F7F4F85E096E037
:103230000E944E05098380E78A831B83BE016F5F6E
:103240007F4F85E096E00E944E0582E089838FE003
:103250008A831B82BE016F5F7F4F85E096E00E94EC
:103260004E050E94770428E040E064EE71E080E0C3
:1032700090E00E94DC0411E01093000610923206E8
:1032800010923306109234061092350610923806CA
:103290001092390610923A0610923B0610923706A9
:1032A000109231061093A10681E396E00E942D074B
:1032B000109295061093A30681E090E0A0E0B0E0A4
:1032C0008093960690939706A0939806B0939906DC
:1032D00061E08DE00E942C0110939A061092640622
:1032E00010926506109266061092670610926A06A2
:1032F00010926B0610926C0610926D061092690681
:10330000109263061093A20683E696E00E942D07B2
:1033100080910C0280939D068091070280939E0607
:103320008091000280939F0660960FB6F894DEBFEE
:103330000FBECDBFDF91CF911F910F91FF90EF9006
:10334000DF90CF90BF90AF909F908F907F906F90C5
:103350005F904F9008958FEF55CE80E053CE96E06A
:10336000EB32F90709F056CE6BCEFF24FA9494CED7
:103370008090580B9090590BA0905A0BB0905B0B1B
:1033800040905C0B50905D0B60905E0B70905F0BFB
:10339000C090600BD090610BE090620BF090630BDB
:1033A0008D81882309F462C3BFE1BB228092580B50
:1033B0009092590BA0925A0BB0925B0BEFE17E22D8
:1033C00040925C0B50925D0B60925E0B70925F0BB3
:1033D000FFE1FF22C092600BD092610BE092620B82
:1033E000F092630B12E0198380E68A8380E48B837A
:1033F000BE016F5F7F4F85E096E00E944E05198306
:1034000080E28A838091580B9091590BA0915A0BBE
:10341000B0915B0B25E1B695A795979587952A9571
:10342000D1F78B83BE016F5F7F4F85E096E00E94EE
:103430004E05198381E28A834091580B5091590BB4
:1034400060915A0B70915B0BDB01CA0132E1B695BA
:10345000A795979587953A95D1F745E0880F991FDD
:103460004A95E1F78076962F93709860892B8B832D
:10347000BE016F5F7F4F85E096E00E944E05198385
:1034800082E28A838091590B8B83BE016F5F7F4FED
:1034900085E096E00E944E05198383E28A8380913D
:1034A000580B8B83BE016F5F7F4F85E096E00E94D3
:1034B0004E0519831A8280915C0B90915D0BA0914F
:1034C0005E0BB0915F0B55E1B695A79597958795E3
:1034D0005A95D1F78B83BE016F5F7F4F85E096E0F1
:1034E0000E944E05198381E08A8340915C0B5091C4
:1034F0005D0B60915E0B70915F0BDB01CA0172E1A5
:10350000B695A795979587957A95D1F7E5E0880FB9
:10351000991FEA95E1F78076962F93709860892B32
:103520008B83BE016F5F7F4F85E096E00E944E0562
:1035300019831A8380915D0B8B83BE016F5F7F4F70
:1035400085E096E00E944E05198383E08A8380918E
:103550005C0B8B83BE016F5F7F4F85E096E00E941E
:103560004E05198384E08A838091600B9091610BF2
:10357000A091620BB091630BF5E1B695A795979575
:103580008795FA95D1F78B83BE016F5F7F4F85E0FA
:1035900096E00E944E05198385E08A838091600B36
:1035A0009091610BA091620BB091630B2A2F237055
:1035B000286002E1B695A795979587950A95D1F76A
:1035C00035E0880F991F3A95E1F78076822B8B833F
:1035D000BE016F5F7F4F85E096E00E944E05198324
:1035E00086E08A838091610B8B83BE016F5F7F4F82
:1035F00085E096E00E944E05198387E08A838091DA
:10360000600B8B83BE016F5F7F4F85E096E00E9469
:103610004E054090640B5090650B6090660B709067
:10362000670B8090680B9090690BA0906A0BB0902C
:103630006B0BC0906C0BD0906D0BE0906E0BF0900C
:103640006F0B8091700B9091710BA091720BB091E8
:10365000730B89879A87AB87BC878091740B909195
:10366000750BA091760BB091770B8D879E87AF87F6
:10367000B88B8C81882309F4A9C29FE179224092FA
:10368000640B5092650B6092660B7092670BAFE112
:10369000BA228092680B9092690BA0926A0BB0924A
:1036A0006B0BBFE1FB22C0926C0BD0926D0BE092D2
:1036B0006E0BF0926F0B89859A85AB85BC85BF71C7
:1036C0008093700B9093710BA093720BB093730B5C
:1036D0008D859E85AF85B889BF718093740B90935B
:1036E000750BA093760BB093770B12E0198380E7EC
:1036F0008A8380E48B83BE016F5F7F4F85E096E015
:103700000E944E05198384E28A838091640B909114
:10371000650BA091660BB091670B05E1B695A79577
:10372000979587950A95D1F78B83BE016F5F7F4F81
:1037300085E096E00E944E05198385E28A83809198
:10374000640B9091650BA091660BB091670B2A2FCB
:103750002370286032E1B695A795979587953A959D
:10376000D1F745E0880F991F4A95E1F78076822BC3
:103770008B83BE016F5F7F4F85E096E00E944E0510
:10378000198386E28A838091650B8B83BE016F5F0C
:103790007F4F85E096E00E944E05198387E28A8379
:1037A0008091640B8B83BE016F5F7F4F85E096E055
:1037B0000E944E05198388E08A838091680B90915E
:1037C000690BA0916A0BB0916B0B55E1B695A7956B
:1037D000979587955A95D1F78B83BE016F5F7F4F81
:1037E00085E096E00E944E05198389E08A838091E6
:1037F000680B9091690BA0916A0BB0916B0B2A2F0B
:103800002370286062E1B695A795979587956A958C
:10381000D1F775E0880F991F7A95E1F78076822BB2
:103820008B83BE016F5F7F4F85E096E00E944E055F
:1038300019838AE08A838091690B8B83BE016F5F55
:103840007F4F85E096E00E944E0519838BE08A83C6
:103850008091680B8B83BE016F5F7F4F85E096E0A0
:103860000E944E05198380E18A8380916C0B9091B0
:103870006D0BA0916E0BB0916F0BE5E1B695A7951E
:1038800097958795EA95D1F78B83BE016F5F7F4F40
:1038900085E096E00E944E05198381E18A8380913C
:1038A0006C0B90916D0BA0916E0BB0916F0B2A2F4A
:1038B00023702860F2E1B695A79597958795FA95BC
:1038C000D1F7A5E0880F991FAA95E1F78076822BA2
:1038D0008B83BE016F5F7F4F85E096E00E944E05AF
:1038E000198382E18A8380916D0B8B83BE016F5FA8
:1038F0007F4F85E096E00E944E05198383E18A831D
:1039000080916C0B8B83BE016F5F7F4F85E096E0EB
:103910000E944E05198384E18A838091700B9091F7
:10392000710BA091720BB091730B05E1B695A79541
:10393000979587950A95D1F78B83BE016F5F7F4F6F
:1039400085E096E00E944E05198385E18A834091C7
:10395000700B5091710B6091720B7091730BDB01C6
:10396000CA0122E1B695A795979587952A95D1F733
:1039700035E0880F991F3A95E1F78076962F93707E
:103980009860892B8B83BE016F5F7F4F85E096E047
:103990000E944E05198386E18A838091710B8B8387
:1039A000BE016F5F7F4F85E096E00E944E05198350
:1039B00087E18A838091700B8B83BE016F5F7F4F9D
:1039C00085E096E00E944E05198388E18A83809104
:1039D000740B9091750BA091760BB091770B45E12C
:1039E000B695A795979587954A95D1F78B83BE0194
:1039F0006F5F7F4F85E096E00E944E05198389E155
:103A00008A838091740B9091750BA091760BB09185
:103A1000770B2A2F2370286052E1B695A7959795CA
:103A200087955A95D1F765E0880F991F6A95E1F758
:103A30008076822B8B83BE016F5F7F4F85E096E09F
:103A40000E944E0519838AE18A838091750B8B83CE
:103A5000BE016F5F7F4F85E096E00E944E0519839F
:103A60008BE18A838091740B8B83E8CB12E01983FE
:103A700080E68A8300E20B83BE016F5F7F4F85E0A3
:103A800096E00E944E0519830A83540147E0B42250
:103A9000C50173E0969587957A95E1F78B83BE0112
:103AA0006F5F7F4F85E096E00E944E05198381E2AB
:103AB0008A83E5E0AA0CBB1CEA95E1F7AB82BE0164
:103AC0006F5F7F4F85E096E00E944E05198382E28A
:103AD0008A831B82BE016F5F7F4F85E096E00E9464
:103AE0004E05198383E28A831B82BE016F5F7F4F7D
:103AF00085E096E00E944E0519831A8287E05822DD
:103B0000C201F3E096958795FA95E1F78B83BE01A4
:103B10006F5F7F4F85E096E00E944E05198381E03C
:103B20008A83A5E0440C551CAA95E1F74B82BE019F
:103B30006F5F7F4F85E096E00E944E0519831A83E0
:103B40001B82BE016F5F7F4F85E096E00E944E05AD
:103B5000198383E08A831B82BE016F5F7F4F85E0FC
:103B600096E00E944E05198384E08A8397E0D9226B
:103B7000C601B3E096958795BA95E1F78B83BE01B0
:103B80006F5F7F4F85E096E00E944E05198385E0C8
:103B90008A8305E0CC0CDD1C0A95E1F7CB82BE01DF
:103BA0006F5F7F4F85E096E00E944E05198386E0A7
:103BB0008A831B82BE016F5F7F4F85E096E00E9483
:103BC0004E05198387E08A831B821CCD12E019837E
:103BD00080E78A8380E28B83BE016F5F7F4F85E041
:103BE00096E00E944E05198384E28A83E7E05E2214
:103BF000C20123E0969587952A95E1F78B83BE0154
:103C00006F5F7F4F85E096E00E944E05198385E245
:103C10008A8335E0440C551C3A95E1F74B82BE018E
:103C20006F5F7F4F85E096E00E944E05198386E224
:103C30008A831B82BE016F5F7F4F85E096E00E9402
:103C40004E05198387E28A831B82BE016F5F7F4F17
:103C500085E096E00E944E05198388E08A83F7E0AC
:103C60009F22C40143E0969587954A95E1F78B839F
:103C7000BE016F5F7F4F85E096E00E944E0519837D
:103C800089E08A8355E0880C991C5A95E1F78B826C
:103C9000BE016F5F7F4F85E096E00E944E0519835D
:103CA0008AE08A831B82BE016F5F7F4F85E096E0CA
:103CB0000E944E0519838BE08A831B82BE016F5FD1
:103CC0007F4F85E096E00E944E05198380E18A834C
:103CD00047E0D422C60163E0969587956A95E1F79F
:103CE0008B83BE016F5F7F4F85E096E00E944E059B
:103CF000198381E18A8375E0CC0CDD1C7A95E1F7AC
:103D0000CB82BE016F5F7F4F85E096E00E944E053B
:103D1000198382E18A831B82BE016F5F7F4F85E03A
:103D200096E00E944E05198383E18A831B82BE01BF
:103D30006F5F7F4F85E096E00E944E05198384E116
:103D40008A83E984FA8487E0F822C701E3E0969544
:103D50008795EA95E1F78B83BE016F5F7F4F85E022
:103D600096E00E944E05198385E18A83F5E0EE0C0A
:103D7000FF1CFA95E1F7EB82BE016F5F7F4F85E094
:103D800096E00E944E05198386E18A831B82BE015C
:103D90006F5F7F4F85E096E00E944E05198387E1B3
:103DA0008A831B82BE016F5F7F4F85E096E00E9491
:103DB0004E05198388E18A83ED84FE8497E0F92219
:103DC000C701A3E096958795AA95E1F78B83BE017D
:103DD0006F5F7F4F85E096E00E944E05198389E171
:103DE0008A83B5E0EE0CFF1CBA95E1F7EB82BE01C9
:103DF0006F5F7F4F85E096E00E944E0519838AE150
:103E00008A831B82BE016F5F7F4F85E096E00E9430
:103E10004E0519838BE18A831B8210CA8091FB05B2
:103E2000811103C081E08093FB058091050681111B
:103E30001BC081E0809305068091060690910706DD
:103E4000A0910806B09109060197A105B10561F49A
:103E500082E090E0A0E0B0E0809306069093070631
:103E6000A0930806B093090680913106811103C022
:103E700081E0809331068091370681111BC081E07B
:103E8000809337068091380690913906A0913A06C2
:103E9000B0913B060197A105B10561F482E090E085
:103EA000A0E0B0E08093380690933906A0933A06DC
:103EB000B0933B0680919506811103C081E0809309
:103EC000950680916306811103C081E080936306AB
:103ED0008091690681111BC081E080936906809101
:103EE0006A0690916B06A0916C06B0916D060197E1
:103EF000A105B10561F482E090E0A0E0B0E080931C
:103F00006A0690936B06A0936C06B0936D060895B5
:103F100060E070E080E89FE7089560E070E080E88E
:103F20009FE7089560E070E080E89FEF089560E00B
:103F300070E080E89FEF089560E070E080EC9FEF14
:103F4000089560E070E080EC9FEF0895F5DF6093E6
:103F50008A0B70938B0B80938C0B90938D0BF1DFFE
:103F600060937E0B70937F0B8093800B9093810BFB
:103F7000CFDF6093860B7093870B8093880B9093B1
:103F8000890BCBDF6093820B7093830B8093840B40
:103F90009093850BC7DF60938E0B70938F0B80938C
:103FA000900B9093910BC3DF6093920B7093930BE4
:103FB0008093940B9093950B089540E855E260E050
:103FC00070E090E080E002D00C944C0181309105CB
:103FD00071F01CF4892B39F008958230910559F065
:103FE000039769F0089526E087E893E078C726E014
:103FF00084E294E0FBCF26E081EC94E0F7CF26E06A
:104000008EE595E0F3CF1F920F920FB60F92112419
:104010000BB60F922F933F934F935F936F937F93C2
:104020008F939F93AF93BF93EF93FF9386E997EEA0
:10403000909325018093240134D0FF91EF91BF919B
:10404000AF919F918F917F916F915F914F913F9130
:104050002F910F900BBE0F900FBE0F901F901895D1
:1040600086E997EE9093250180932401A3E7B0E0C1
:104070008C918E7F8C93E0E2F1E080818C7F808355
:10408000E1E2F1E08081877E8083808183608083AC
:1040900080818B7F80838C9181608C93089581E0F7
:1040A0000895CF93DF931F921F92CDB7DEB7809113
:1040B000760391E0980F90937603882369F021E0CE
:1040C00030E03093790320937803809376030F9048
:1040D0000F90DF91CF910895CE0101960E94F704D1
:1040E00078940E94B60CF894809176038150809366
:1040F00076038A81882389F08091750391E0980F77
:1041000090937503882349F021E030E030937903E0
:104110002093780380937503DACF80917503882309
:10412000B1F2809177038111D2CF81E08093770340
:1041300078940E940312F8948091750381508093C3
:10414000750380917703815080937703C0CFCF931D
:10415000DF931092970B1092960BC6D42EDFC0916E
:104160002803D0912903198218820E943A1778DF18
:1041700081E028813981232B09F080E08093960B20
:10418000789478948091960B811107C047DEF8945B
:1041900090E080E0DF91CF91089581E0288139811E
:1041A000232B09F480E08093970B9091970B81E08B
:1041B000911180E08093960B72DFE4CF5058BB27BB
:1041C000AA270ED057C148D130F04DD120F031F49C
:1041D0009F3F11F41EF43DC10EF4E095E7FB0AC1C8
:1041E000E92F59D180F3BA1762077307840795073F
:1041F00018F071F49EF588C10EF4E0950B2EBA2FDD
:10420000A02D0B01B90190010C01CA01A0011124DC
:10421000FF27591B99F0593F50F4503E68F11A1688
:10422000F040A22F232F342F4427585FF3CF469519
:1042300037952795A795F0405395C9F77EF41F163B
:10424000BA0B620B730B840BBAF09150A1F0FF0F05
:10425000BB1F661F771F881FC2F70EC0BA0F621FF1
:10426000731F841F48F4879577956795B795F795E1
:104270009E3F08F0B3CF9395880F08F09927EE0F73
:1042800097958795089529D180F09F3740F4911133
:104290000EF43BC160E070E080E89FE3089526F0F3
:1042A0001B16611D711D811DABC0C5C07FD008F4F8
:1042B00081E00895F8D088F09F5790F0B92F9927A2
:1042C000B751A0F0D1F0660F771F881F991F1AF021
:1042D000BA95C9F712C0B13081F016D1B1E0089596
:1042E00013C1672F782F8827B85F39F0B93FCCF317
:1042F000869577956795B395D9F73EF49095809517
:10430000709561957F4F8F4F9F4F0895E89409C036
:1043100097FB3EF490958095709561957F4F8F4FF8
:104320009F4F9923A9F0F92F96E9BB279395F6950E
:10433000879577956795B795F111F8CFFAF4BB0F8C
:1043400011F460FF1BC06F5F7F4F8F4F9F4F16C0F0
:10435000882311F096E911C0772321F09EE8872F7A
:10436000762F05C0662371F096E8862F70E060E036
:104370002AF09A95660F771F881FDAF7880F9695AF
:10438000879597F90895A9D080F09F3740F491114F
:104390000EF0BBC060E070E080E89FEB089526F46B
:1043A0001B16611D711D811D2BC045C0990F000892
:1043B000550FAA0BE0E8FEEF16161706E807F907F7
:1043C000C0F012161306E407F50798F0621B730B92
:1043D000840B950B39F40A2661F0232B242B252B13
:1043E00021F408950A2609F4A140A6958FEF811DB6
:1043F000811D089597F99F6780E870E060E0089557
:10440000882371F4772321F09850872B762F07C0EB
:10441000662311F499270DC09051862B70E060E05F
:104420002AF09A95660F771F881FDAF7880F9695FE
:10443000879597F908959F3F31F0915020F4879523
:1044400077956795B795880F911D9695879597F9FC
:1044500008959FEF80EC089500240A94161617061D
:1044600018060906089500240A9412161306140665
:1044700005060895092E0394000C11F4882352F0C8
:10448000BB0F40F4BF2B11F460FF04C06F5F7F4F80
:104490008F4F9F4F089557FD9058440F551F59F067
:1044A0005F3F71F04795880F97FB991F61F09F3F21
:1044B00079F087950895121613061406551FF2CF4A
:1044C0004695F1DF08C0161617061806991FF1CF9A
:1044D00086957105610508940895E5DFA0F0BEE7B3
:1044E000B91788F4BB279F3860F41616B11D672FE3
:1044F000782F8827985FF7CF869577956795B11DB8
:1045000093959639C8F30895E894BB2766277727D3
:10451000CB0197F908954ADF08F48FEF08950BD087
:10452000A9CF9ADF28F09FDF18F0952309F062CF1A
:1045300090CF1124EACFAFDFA0F3959FD1F3950F71
:1045400050E0551F629FF001729FBB27F00DB11D17
:10455000639FAA27F00DB11DAA1F649F6627B00DA7
:10456000A11D661F829F2227B00DA11D621F739F90
:10457000B00DA11D621F839FA00D611D221F749F9E
:104580003327A00D611D231F849F600D211D822FE5
:10459000762F6A2F11249F5750408AF0E1F088232C
:1045A0004AF0EE0FFF1FBB1F661F771F881F915039
:1045B0005040A9F79E3F510570F01CCFA6CF5F3F3A
:1045C000ECF3983EDCF3869577956795B795F7956C
:1045D000E7959F5FC1F7FE2B880F911D96958795F4
:1045E00097F90895CF93CFB7F89480917D03811107
:1045F00023C0E5EAF1E08491EFE5F1E09491E82F42
:10460000F0E0EE0FFF1FE053FE4FA591B491EC9147
:10461000E92319F461E085E36BD361E085E32CD3F2
:104620008CB580618CBD8CB580648CBD61E084E309
:1046300023D361E083E320D380917D038F5F809358
:104640007D03CFBFCF910895982F2FB7F89488306E
:1046500040F5E82FF0E08827E05DFC4D8F4F1EC746
:10466000562338234723492339234B234D234F23F4
:1046700090E280917B03982B90937B0380917C0345
:10468000811103C081E080937C032FBF089591E0E6
:10469000F0CF92E0EECF98E0ECCF90E4EACF90E854
:1046A000E8CF82E080937C0390E0E3CF90E1E1CF1C
:1046B0000895883008F075C0E82FF0E0EE0FFF1F76
:1046C000E05FFD4F718360838150873008F03CC00C
:1046D000E82FF0E08827E159FC4D8F4FDFC6AC236F
:1046E00076237E238A239723B823C52380916900EC
:1046F0008C7F482B40936900E89A08958091690067
:10470000837F440F551F440F551F482B409369006A
:10471000E99A0895809169008F7C74E0440F551FD9
:104720007A95E1F7482B40936900EA9A08958091C1
:1047300069008F7366E0440F551F6A95E1F7482BB7
:1047400040936900EB9A089580916A008C7F482B12
:1047500040936A00EC9A089580916A00837F440F29
:10476000551F440F551F482B40936A00ED9A08953A
:1047700080916A008F7C24E0440F551F2A95E1F751
:10478000482B40936A00EE9A089580916A008F73D7
:1047900096E0440F551F9A95E1F7482B40936A0025
:1047A000EF9A08951F920F920FB60F9211240BB635
:1047B0000F922F933F934F935F936F937F938F93BA
:1047C0009F93AF93BF93EF93FF93E0911402F09107
:1047D00015021995FF91EF91BF91AF919F918F9124
:1047E0007F916F915F914F913F912F910F900BBEF1
:1047F0000F900FBE0F901F9018951F920F920FB63B
:104800000F9211240BB60F922F933F934F935F9308
:104810006F937F938F939F93AF93BF93EF93FF9388
:10482000E0911602F09117021995FF91EF91BF9157
:10483000AF919F918F917F916F915F914F913F9138
:104840002F910F900BBE0F900FBE0F901F901895D9
:104850001F920F920FB60F9211240BB60F922F9347
:104860003F934F935F936F937F938F939F93AF93F8
:10487000BF93EF93FF93E0911802F09119021995FD
:10488000FF91EF91BF91AF919F918F917F916F9128
:104890005F914F913F912F910F900BBE0F900FBEE4
:1048A0000F901F9018951F920F920FB60F92112420
:1048B0000BB60F922F933F934F935F936F937F931A
:1048C0008F939F93AF93BF93EF93FF93E0911A025F
:1048D000F0911B021995FF91EF91BF91AF919F91BC
:1048E0008F917F916F915F914F913F912F910F9099
:1048F0000BBE0F900FBE0F901F9018951F920F9236
:104900000FB60F9211240BB60F922F933F934F9334
:104910005F936F937F938F939F93AF93BF93EF9327
:10492000FF93E0911002F09111021995FF91EF9120
:10493000BF91AF919F918F917F916F915F914F91B7
:104940003F912F910F900BBE0F900FBE0F901F90B5
:1049500018951F920F920FB60F9211240BB60F925B
:104960002F933F934F935F936F937F938F939F9377
:10497000AF93BF93EF93FF93E0911202F091130274
:104980001995FF91EF91BF91AF919F918F917F9179
:104990006F915F914F913F912F910F900BBE0F90B0
:1049A0000FBE0F901F9018951F920F920FB60F9287
:1049B00011240BB60F922F933F934F935F936F93F6
:1049C0007F938F939F93AF93BF93EF93FF93E09168
:1049D0001C02F0911D021995FF91EF91BF91AF91CB
:1049E0009F918F917F916F915F914F913F912F9107
:1049F0000F900BBE0F900FBE0F901F9018951F9237
:104A00000F920FB60F9211240BB60F922F933F9374
:104A10004F935F936F937F938F939F93AF93BF93C6
:104A2000EF93FF93E0911E02F0911F021995FF9101
:104A3000EF91BF91AF919F918F917F916F915F9116
:104A40004F913F912F910F900BBE0F900FBE0F9083
:104A50001F9018951F920F920FB60F9211242F934B
:104A60003F938F939F93AF93BF9380917F039091D8
:104A70008003A0918103B091820330917E0323E0F3
:104A8000230F2D3758F50196A11DB11D20937E03EC
:104A900080937F0390938003A0938103B09382035C
:104AA0008091830390918403A0918503B091860344
:104AB0000196A11DB11D8093830390938403A0935D
:104AC0008503B0938603BF91AF919F918F913F91E2
:104AD0002F910F900FBE0F901F90189526E8230F6F
:104AE0000296A11DB11DD2CF789484B5826084BD99
:104AF00084B5816084BD85B5826085BD85B58160E2
:104B000085BDEEE6F0E0808181608083E1E8F0E041
:104B10001082808182608083808181608083E0E870
:104B2000F0E0808181608083E1EBF0E0808184604F
:104B30008083E0EBF0E0808181608083E1E9F0E058
:104B4000808182608083808181608083E0E9F0E001
:104B5000808181608083E1EAF0E0808182608083EF
:104B6000808181608083E0EAF0E0808181608083E1
:104B7000E1E2F1E0808182608083808181608083D6
:104B8000E0E2F1E0808181608083EAE7F0E080810B
:104B90008460808380818260808380818160808363
:104BA0008081806880831092C10008958150823195
:104BB00008F059C0E82FF0E08827EF51FA4D8F4FE9
:104BC0006DC401260526F325F925FD253326082683
:104BD0000E26122618261C26202626262A263326AE
:104BE0002E2634263826809180008F77809380008F
:104BF0000895809180008F7DF9CF80918000877F1C
:104C0000F5CF84B58F7784BD089584B58F7DFBCFB4
:104C10008091B0008F778093B00008958091B000AC
:104C20008F7DF9CF809190008F77809390000895C9
:104C3000809190008F7DF9CF80919000877FF5CF94
:104C40008091A0008F778093A00008958091A000AC
:104C50008F7DF9CF8091A000877FF5CF80912001D3
:104C60008F77809320010895809120018F7DF9CF67
:104C700080912001877FF5CFCF93DF9390E0FC01F7
:104C8000E65DFE4F249180599E4FFC01849188235C
:104C9000C9F090E0880F991FFC01E053FE4FA591E9
:104CA000B491FC01EA54FE4FC591D49161110DC03D
:104CB0009FB7F8948C91209582238C938881282328
:104CC00028839FBFDF91CF910895623051F49FB741
:104CD000F8943C91822F809583238C93E8812E2B2E
:104CE000EFCF8FB7F894EC912E2B2C938FBFEACF98
:104CF0001F93CF93DF93282F30E0F901EC51FF4F42
:104D00008491F901E65DFE4FD491F901E059FE4F1F
:104D1000C491CC23A1F0162F811148DFEC2FF0E0D5
:104D2000EE0FFF1FEA54FE4FA591B4918FB7F89490
:104D3000EC91111108C0D095DE23DC938FBFDF9179
:104D4000CF911F910895DE2BF8CFFC01918D228D1C
:104D5000892F90E0805C9F4F821B91098F73992768
:104D60000895FC01918D828D981731F0828DE80FA6
:104D7000F11D858D90E008958FEF9FEF0895FC0160
:104D8000918D828D981761F0A28DAE0FBF2FB11D4E
:104D90005D968C91928D9F5F9F73928F90E00895A6
:104DA0008FEF9FEF0895FC01538D448D252F30E048
:104DB000842F90E0821B930B541710F0CF96089528
:104DC00001970895FC01A48DA80FB92FB11DA35A16
:104DD000BF4F2C91848D90E001968F739927848F1B
:104DE000A689B7892C93A089B1898C91837080643E
:104DF0008C93938D848D981306C00288F389E02DDF
:104E000080818F7D80830895CF93DF93EC01888D1F
:104E10008823B1F0AA89BB89E889F9898C9185FD3D
:104E200003C0808186FD0CC00FB607FCF7CF8C91C4
:104E300085FFF2CF808185FFEDCFCE01C3DFEACFC2
:104E4000DF91CF910895EF92FF920F931F93CF932D
:104E5000DF93EC0181E0888F9B8D8C8D98131AC0B5
:104E6000E889F989808185FF15C09FB7F894EE899C
:104E7000FF896083E889F9898081837080648083F9
:104E80009FBF81E090E0DF91CF911F910F91FF9044
:104E9000EF900895F62E0B8D10E00F5F1F4F0F73EC
:104EA0001127E02E8C8D8E110BC00FB607FCFACFA8
:104EB000E889F989808185FFF5CFCE0183DFF2CFC4
:104EC000EB8DEC0FFD2FF11DE35AFF4FF0829FB7E2
:104ED000F8940B8FEA89FB8980818062D0CFCF92D2
:104EE000DF92EF92FF921F93CF93DF93EC016A0161
:104EF0007B01122FE889F98982E08083C11481EE59
:104F0000D806E104F10499F060E079E08DE390E0E7
:104F1000A7019601A1D221503109410951095695A5
:104F2000479537952795211580E1380790F0E88956
:104F3000F989108260E874E88EE190E0A70196019B
:104F40008BD2215031094109510956954795379522
:104F50002795EC85FD853083EE85FF852083188EAF
:104F6000EC89FD891083EA89FB89808180618083D7
:104F7000EA89FB89808188608083EA89FB89808156
:104F800080688083EA89FB8980818F7D8083DF91BF
:104F9000CF911F91FF90EF90DF90CF9008951F92D7
:104FA0000F920FB60F9211240BB60F922F938F937F
:104FB0009F93EF93FF93E0919703F0919803808183
:104FC000E0919D03F0919E0382FD1DC09081809130
:104FD000A0038F5F8F732091A103821741F0E091AE
:104FE000A003F0E0E957FC4F958F8093A003FF9159
:104FF000EF919F918F912F910F900BBE0F900FBE4D
:105000000F901F9018958081F2CF1F920F920FB6CC
:105010000F9211240BB60F922F933F934F935F93F0
:105020006F937F938F939F93AF93BF93EF93FF9370
:1050300087E893E0C7DEFF91EF91BF91AF919F9119
:105040008F917F916F915F914F913F912F910F9031
:105050000BBE0F900FBE0F901F901895E7E8F3E07E
:105060001382128288EE93E0A0E0B0E084839583FF
:10507000A683B7838EE293E09183808385EC90E0F2
:105080009587848784EC90E09787868780EC90E012
:10509000918B808B81EC90E0938B828B82EC90E003
:1050A000958B848B86EC90E0978B868B118E128E7D
:1050B000138E148E08951F920F920FB60F92112423
:1050C0000BB60F922F938F939F93EF93FF93E091E3
:1050D0003404F09135048081E0913A04F0913B046E
:1050E00082FD1DC0908180913D048F5F8F73209160
:1050F0003E04821741F0E0913D04F0E0EC5DFB4F8F
:10510000958F80933D04FF91EF919F918F912F9107
:105110000F900BBE0F900FBE0F901F9018958081BF
:10512000F2CF1F920F920FB60F9211240BB60F926F
:105130002F933F934F935F936F937F938F939F939F
:10514000AF93BF93EF93FF9384E294E03BDEFF9134
:10515000EF91BF91AF919F918F917F916F915F91EF
:105160004F913F912F910F900BBE0F900FBE0F905C
:105170001F901895E4E2F4E01382128288EE93E027
:10518000A0E0B0E084839583A683B7838EE293E0AA
:10519000918380838DEC90E0958784878CEC90E000
:1051A0009787868788EC90E0918B808B89EC90E0E4
:1051B000938B828B8AEC90E0958B848B8EEC90E0C5
:1051C000978B868B118E128E138E148E08951F92DC
:1051D0000F920FB60F9211240BB60F922F938F934D
:1051E0009F93EF93FF93E091D104F091D2048081DB
:1051F000E091D704F091D80482FD1DC09081809188
:10520000DA048F5F8F732091DB04821741F0E09105
:10521000DA04F0E0EF53FB4F958F8093DA04FF91AF
:10522000EF919F918F912F910F900BBE0F900FBE1A
:105230000F901F9018958081F2CF1F920F920FB69A
:105240000F9211240BB60F922F933F934F935F93BE
:105250006F937F938F939F93AF93BF93EF93FF933E
:1052600081EC94E0AFDDFF91EF91BF91AF919F9101
:105270008F917F916F915F914F913F912F910F90FF
:105280000BBE0F900FBE0F901F901895E1ECF4E04D
:105290001382128288EE93E0A0E0B0E084839583CD
:1052A000A683B7838EE293E09183808385ED90E0BF
:1052B0009587848784ED90E09787868780ED90E0DE
:1052C000918B808B81ED90E0938B828B82ED90E0CF
:1052D000958B848B86ED90E0978B868B118E128E4A
:1052E000138E148E08951F920F920FB60F921124F1
:1052F0000BB60F922F938F939F93EF93FF93E091B1
:105300006E05F0916F058081E0917405F09175054F
:1053100082FD1DC09081809177058F5F8F732091F2
:105320007805821741F0E0917705F0E0E25AFA4FF4
:10533000958F80937705FF91EF919F918F912F919A
:105340000F900BBE0F900FBE0F901F90189580818D
:10535000F2CF1F920F920FB60F9211240BB60F923D
:105360002F933F934F935F936F937F938F939F936D
:10537000AF93BF93EF93FF938EE595E023DDFF910D
:10538000EF91BF91AF919F918F917F916F915F91BD
:105390004F913F912F910F900BBE0F900FBE0F902A
:1053A0001F901895EEE5F5E01382128288EE93E0E7
:1053B000A0E0B0E084839583A683B7838EE293E078
:1053C0009183808385E391E09587848784E391E0EE
:1053D0009787868780E391E0918B808B81E391E0D2
:1053E000938B828B82E391E0958B848B86E391E0B3
:1053F000978B868B118E128E138E148E0895AF921A
:10540000BF92CF92DF92EF92FF920F931F93CF93B1
:10541000DF936C017B018B01040F151FEB015E0113
:10542000AE18BF08C017D10759F06991D601ED91A8
:10543000FC910190F081E02DC6011995892B79F737
:10544000C501DF91CF911F910F91FF90EF90DF90F9
:10545000CF90BF90AF900895A1E21A2EAA1BBB1B5C
:10546000FD010DC0AA1FBB1FEE1FFF1FA217B30730
:10547000E407F50720F0A21BB30BE40BF50B661F46
:10548000771F881F991F1A9469F76095709580950A
:1054900090959B01AC01BD01CF010895EE0FFF1F58
:1054A000881F8BBF0790F691E02D1994F894FFCFD9
:1054B00000050A00000000000100010000010100D9
:1054C0005823582358235823582358235823582304
:1054D00008000000E803000000800008000000F45D
:1054E00001000000900208000000FA00000000B176
:1054F0000508000000C800000000B4060800000015
:105500007D00000001B105080000006400000001FA
:10551000B406080000005000000001BF07080000AA
:10552000003200000003B40608000000280000005C
:1055300003BF07080000001400000007BF070800B1
:1055400000000A0000000FBF07080000000500006F
:10555000001FBF0710000000E803000000D0821009
:10556000000000F401000000F08610000000FA00C6
:10557000000041F18510000000C800000001FA871A
:10558000100000007D00000003F0861000000064A1
:1055900000000003FA87100000005000000003FF25
:1055A00087100000003200000007FA87100000009A
:1055B0002800000007FF8710000000140000000F03
:1055C000FF87100000000A0000001FFF8710000086
:1055D00000050000003FFF87A4060000000023270D
:0C55E000FF29D3260427A526BF26B126EC
:00000001FF
