:100000005DC000000C9411250C9438257FC00000C1
:100010007DC000007BC0000079C0000077C00000F8
:1000200075C0000073C0000071C000006FC0000008
:100030006DC000000C94862169C0000067C00000FC
:100040000C945F2563C000000C9416280C9448287B
:100050005DC000005BC0000059C0000057C0000038
:1000600055C0000053C0000000000008000201005D
:100070000003040700000000000000000102040863
:100080001020408001020408102001020408102002
:10009000040404040404040402020202020203032E
:1000A0000303030300000000250028002B000000CC
:1000B0000000240027002A004B046D2811241FBED5
:1000C000CFEFD8E0DEBFCDBF12E0A0E0B1E0E0E0CE
:1000D000F2E502C005900D92A035B107D9F728E0EE
:1000E000A0E5B2E001C01D92AC31B207E1F710E02B
:1000F000CEE5D0E004C02197FE010E94F828CC355F
:10010000D107C9F70E9454220C94FE2879CF6111BF
:1001100002C00C9483266130E1F362E0FACF6623DB
:1001200019F061E00C94BF2660E0FCCF8EBD0000AA
:100130000DB407FEFDCF8EB50895CF93C82F61E0B3
:100140000E94832661E08C2FCF910C94BF260C94E3
:10015000A4247F928F929F92AF92BF92CF92DF9210
:10016000EF92FF920F931F93CF93DF93D82EB62E6B
:10017000C72EE42EC22F8091A402882381F09FB75E
:10018000F8948091A402813051F58DB38093A2023E
:100190002DB38091A302809582238DBB9FBF80E504
:1001A0008CBD1DBC60E08D2D0E94BF26F12CC2309D
:1001B00009F43AC0C330B1F0C13009F04CC0CB2DC6
:1001C000DC2D5801C501801B910B8E159F050CF08D
:1001D00051C08991ABDFF50181935F01F3CF90931B
:1001E000A202DDCFCB2DDC2DB12CA12CAE14BF048F
:1001F0000CF040C088819980CA807B80249696DF6D
:10020000882E892D93DF982E8C2D90DFC82E872D78
:100210008DDFF80180829182C28283830C5F1F4F41
:10022000FFEFAF1ABF0AE2CFCB2DDC2DB12CA12CF2
:10023000AE14BF04FCF488819980229677DFC82E23
:10024000892D74DFF801C08281830E5F1F4FFFEF9D
:10025000AF1ABF0AEDCFCB2DDC2D5801C501801B95
:10026000910B8E159F0534F4899160DFF501819320
:100270005F01F4CF61E08D2D0E94BF268091A40222
:10028000882351F09FB7F8942091A4028091A20294
:10029000213081F48DBB9FBFDF91CF911F910F91D2
:1002A000FF90EF90DF90CF90BF90AF909F908F9096
:1002B0007F9008958FBFF0CF2091A402222381F078
:1002C0003FB7F8942091A402213069F42DB3209314
:1002D000A2024DB32091A302209524232DBB3FBF42
:1002E0008CBD9DBD08953093A202FACF8091A402E7
:1002F000882361F09FB7F8942091A4028091A20214
:10030000213019F48DBB9FBF08958FBF0895CF93FF
:10031000C82F8091630290916402CEDF60E08AE092
:100320000E94BF2683E002DF8C2F00DF80E0FEDE2C
:10033000C82F61E08AE00E94BF26D8DF8C2FCF91C2
:100340000895CF93C82F8091630290916402B4DF27
:1003500060E08AE00E94BF2682E0E8DE8FE0E6DE11
:100360008C2FE4DE61E08AE00E94BF26CF91BECFF1
:10037000CF93C82F80916302909164029DDF60E06B
:100380008AE00E94BF2685E0D1DE8CE2CFDE8C2F92
:10039000CDDE80E0CBDE61E08AE00E94BF26CF9117
:1003A000A5CFBF92CF92DF92EF92FF920F931F9350
:1003B000CF93DF938CE2ABDF882371F185FF14C00C
:1003C0008DE2A5DF90E09C01359527953595279521
:1003D000227064E0959587956A95E1F78C70822B81
:1003E0008093520280EEC4DF8CE291DF80FD1EC05C
:1003F00011E081FD1CC08FEF9FEFDC0180935F0255
:1004000090936002A0936102B093620210925E0228
:1004100010925D0210925B02DF91CF911F910F91BC
:10042000FF90EF90DF90CF90BF90089510E0C12F24
:10043000C295C07FD2E6DC0F8D2F69DF83FB882752
:1004400080F980935E0281E68C0F61DFC82E8D2FCC
:100450005EDF98E0C99E6001112490E045E095952B
:1004600087954A95E1F7C82AD92A05E60C0F8091AD
:100470005E020D2C000CEE08FF08882309F4B5C0BD
:100480008D2F45DFB82E83E68C0F41DFD82F84E611
:100490008C0F3DDF4B2D50E070E060E0BA01552736
:1004A0004427442755276370772722E1CC0CDD1CB5
:1004B000EE1CFF1C2A95D1F7C82A4C295D296E290C
:1004C0007F29CD2ED12CDC2CCC24F12CE12C4C29F5
:1004D0005D296E297F2940935F02509360026093EB
:1004E000610270936202802F12DF86FB882780F9F9
:1004F00080935D02802F0BDF8F7080935C02909160
:100500005D02992309F47EC010925B0281E001C074
:10051000880F1A95EAF72CDFC0905F02D090600236
:10052000E0906102F0906202C0926802D09269028B
:10053000E0926A02F0926B0281E080936602509131
:100540005E025093670240915C0240936C0260919E
:100550005D0260936D0210926E0220915B0230E0AA
:1005600090E080E0FC01EA59FD4F821793070CF000
:1005700061C0DC01AD5ABD4F7C9171870196883016
:10058000910581F78091790290917A02A0917B0286
:10059000B0917C02C816D906EA06FB0609F03CCFEA
:1005A00080917802581338CF80917D02481334CF60
:1005B00081E0809377025093780240937D026093AC
:1005C0007E0210927F0290E080E0FC01E958FD4F2E
:1005D000821793078CF5DC01AD5ABD4F4C914187D2
:1005E00001968830910589F717CFC0925F02D092AB
:1005F0006002E0926102F09262028D2F88DE8295A5
:10060000817076CF80935B02CA5983E5E82E82E041
:10061000F82E20915B02C7018355924028171906D6
:1006200009F00CF473CF8C2F72DEF70181937F01F8
:10063000CF5FEFCF1186A2CF1186D2CFCF92DF92BC
:10064000EF92FF92CF93DF93CDB7DEB7C850D14082
:100650000FB6F894DEBF0FBECDBF28E031E0E3E374
:10066000F1E0DE01119601900D9221503040D9F752
:10067000FE01319630E020E0C080D180E280F3803E
:10068000A8E0CA16D104E104F10471F5C480D58054
:10069000E680F780BDE7CB16D104E104F10421F533
:1006A000ABE0A29FF001A39FF00D1124389621E04A
:1006B00030E02C0F3D1FE20FF31F2081DC012C9353
:1006C0008181DB018C938281FA018083C85FDE4FD8
:1006D0000FB6F894DEBF0FBECDBFDF91CF91FF9074
:1006E000EF90DF90CF9008952F5F3F4F3B962831DA
:1006F000310511F6EBCF8F929F92AF92BF92CF92BE
:10070000DF92EF92FF920F931F93CF93DF93CDB7BA
:10071000DEB7FC011082FB011082FA011082118207
:10072000128213828FEF90E0A0E0B0E0F9018083A5
:100730009183A283B383F80180839183A283B383DF
:10074000F7011082F6011082118212821382F501E4
:1007500080839183A283B383F40180839183A283F6
:10076000B383EF85F88980839183A283B383E9897A
:10077000FA8980839183A283B383DF91CF911F9104
:100780000F91FF90EF90DF90CF90BF90AF909F9030
:100790008F90089580915102089581E080935102D5
:1007A000089580E8CEDD8FE0B2DD8038D9F480E0B6
:1007B000C8DD8FE0ACDD811115C080915002811140
:1007C00011C081E08093500260E082E00E948326A5
:1007D00080E00E94D62450E040E061ED71E080E0CE
:1007E0000C94F12408954F925F926F927F92AF9292
:1007F000BF92CF92DF92EF920F931F9340907902B6
:1008000050907A0260907B0270907C0246165706E8
:1008100068067906D9F4809178028E1117C0FA0122
:1008200090E080E0DC01A958BD4F19962C912193EE
:10083000019688309105B1F780917702F8018083A5
:1008400080917E02F601808310927702809152029D
:10085000F50180831F910F91EF90DF90CF90BF90B3
:10086000AF907F906F905F904F90089530916502A8
:1008700051E1359FF0011124E958FD4F62837383E4
:10088000848395834183268381E0830F809365026F
:1008900008958AE00895E3E6F2E080E5808311821E
:1008A0000895CF93DF93882349F0EB0181500E9494
:1008B000E42599838883DF91CF910895FB0111820C
:1008C0001082F9CF0F931F938B019C0183E0369523
:1008D0002795179507958A95D1F70F561D4F462FE7
:1008E000477021E030E0F90102C0EE0FFF1F4A958A
:1008F000E2F7AF01F80120812423CB0101962111F9
:1009000002C090E080E01F910F9108950F931F9314
:100910008B019C0183E036952795179507958A955D
:10092000D1F7677081E090E001C0880F6A95EAF71F
:10093000F801EF56FD4F2081452B31F4809582233D
:1009400080831F910F910895822BFACFCF92DF926F
:10095000EF92FF92CF93DF936B017C0160E08EE01A
:10096000C816D104E104F10490F48EE08C0D0E94CD
:100970008326E6012196AE01C701B601C7DFCE018D
:10098000DF91CF91FF90EF90DF90CF9008958C2D65
:10099000EECF882341F08150682F70E090E080E036
:1009A00050E040E0B3CF08950895CF92DF92EF92E8
:1009B000FF92CF93882351F16A017B01CFEFC80FDB
:1009C00020E030E0A901CB01B6010E94032387FF9C
:1009D00011C0C701B60190580E940C239B01AC01C5
:1009E0006C2F70E090E080E0CF91FF90EF90DF906F
:1009F000CF90B2C0C701B6010E9407238C2FCF91C0
:100A0000FF90EF90DF90CF900C94FF25CF91FF9057
:100A1000EF90DF90CF9008950F931F938B019C016F
:100A200083E036952795179507958A95D1F708574E
:100A30001D4F462F477021E030E0F90102C0EE0F54
:100A4000FF1F4A95E2F7AF01F80120812423CB0173
:100A50000196211102C090E080E01F910F9108954E
:100A60000F931F938B019C0183E036952795179573
:100A700007958A95D1F7677081E090E001C0880FF3
:100A80006A95EAF7F801E857FD4F2081452B31F4CC
:100A90008095822380831F910F910895822BFACF36
:100AA0002F923F924F925F926F927F928F929F927E
:100AB000AF92BF92CF92DF92EF92FF920F931F936C
:100AC000CF93DF93D62EC72E782E692E49015A0177
:100AD000280161E08D2D0E948326CD2DDC2D8E0115
:100AE0000F5F1F4FA8016D2D7C2D872D962DB8DF30
:100AF00020E030E0A901C201B7010E943D24181690
:100B000064F4C201B7010E940C232B01C501B4019A
:100B10000E940C23A201CE0123D0C801DF91CF9106
:100B20001F910F91FF90EF90DF90CF90BF90AF900B
:100B30009F908F907F906F905F904F903F902F90FD
:100B40000895882341F08150682F70E090E080E0A4
:100B500050E040E085CF0895862FB9010C94FF2521
:100B60009C01FC01E859FF4FE491E33061F140F44E
:100B7000E13011F1E23021F160E0822F0C94BF26C8
:100B8000E730C1F1E83009F441C0E430A9F78091C1
:100B900080008C7F82608093800090918100907EA5
:100BA0009061692B60938100509387004093860089
:100BB0008091800080621BC084B5806884BDDCCFDA
:100BC00084B58062FBCF809180008C7F82608093AF
:100BD000800090918100907E9061692B60938100EC
:100BE00050938700409386008091800080688093B6
:100BF0008000C2CF8091B00080688093B000809167
:100C0000B100887F682B6093B100B6CF8091B000AF
:100C10008062F3CFCF93DF93EC0189819A81AB811E
:100C2000BC810197A105B105C1F48D818823A9F08C
:100C30006A857B858C859D85EFDE9987888740E076
:100C400050E0BA01B2DE6A857B858C859D85E4DE45
:100C500099878887DF91CF9174CFDF91CF910895E5
:100C600021E030910008311120E0FC01218321E0D6
:100C700030910108311120E0FC0122830895CF92C8
:100C8000DF92EF92FF926B017C019F7720E030E0D2
:100C900040E859E50E94032387FF2BC020E030E0A5
:100CA00040E05FE3C701B6010E943D2487FD0EC00E
:100CB00020E030E040E05FE3C701B6010E948C22F3
:100CC000FF90EF90DF90CF900C94752320E030E000
:100CD00040E05FEBC701B6010E943D24181684F482
:100CE00020E030E0A901C701B6010E9441246B0158
:100CF0007C01C701B601FF90EF90DF90CF9008957F
:100D000020E030E040E05FE3C701B6010E948B22A3
:100D1000FF90EF90DF90CF900C94F0224F925F9273
:100D20006F927F928F929F92AF92BF92EF92FF92BB
:100D30000F931F93CF93DF9300D01F92CDB7DEB7F1
:100D40008C017B01FC0181819281A381B481980196
:100D50002A5D3F4F59010197A105B10509F44DC026
:100D6000158281E090E0A0E0B0E081839283A383CC
:100D7000B48386839783A087B18783E090E0A0E067
:100D8000B0E082879387A487B5873E9681E090E0A4
:100D9000A0E0B0E081939193A193B193EA15FB0594
:100DA000C9F7D80196966D917D918D919C919997F7
:100DB00066DF2B013C014092F8055092F9056092E4
:100DC000FA057092FB0520E030E040E853E40E9411
:100DD000032387FF8CC020E030E0A901C301B201EA
:100DE0000E943D2487FD85C0C301B2010E940C23EF
:100DF000862FA3D981E0F801858381E08093D40513
:100E000093E09093D5058093D6058093D705809382
:100E1000D8058093D9058093DA058093DB05F80126
:100E2000369624ED35E0C9014F01D4014D905D9017
:100E30006D907D904D01DC014D91CD01042E000C93
:100E4000550B660B770B441655066606770609F4B4
:100E500052C0D9018D919D01082E000C990BAA0B4F
:100E6000BB0B81939193A193B193AE16BF0689F703
:100E7000F80166A177A180A591A501DF4B015C0176
:100E80008092F8059092F905A092FA05B092FB05C0
:100E900020E030E040E853E40E94032387FF30C0A5
:100EA00020E030E0A901C501B4010E943D2487FD86
:100EB00029C0C501B4010E940C23862F8E010F5F4B
:100EC0001F4F21E043E0B70144D90F900F900F90DE
:100ED000DF91CF911F910F91FF90EF90BF90AF9056
:100EE0009F908F907F906F905F904F9008958FEFBD
:100EF00080CF80E07ECFA814B90409F096CFB8CF98
:100F00008FEFDCCF80E0DACFAF92BF92CF92DF924B
:100F1000EF92FF920F931F93CF93DF9300D000D0F7
:100F200000D0CDB7DEB78091820690918306A09164
:100F30008406B09185060197A105B10509F466C044
:100F40001092860681E090E0A0E0B0E080938206F7
:100F500090938306A0938406B09385068093CC0477
:100F60009093CD04A093CE04B093CF0483E090E09F
:100F7000A0E0B0E08093D0049093D104A093D20479
:100F8000B093D304E4EDF4E081E090E0A0E0B0E0C1
:100F900081939193A193B19324E0EC3EF207C1F7C2
:100FA00080E2ECECF4E0A7E8B6E001900D928A95BF
:100FB000E1F76091A7067091A8068091A90690912B
:100FC000AA065DDE6B017C01C092E805D092E905BE
:100FD000E092EA05F092EB0520E030E040E853E4CF
:100FE0000E94032387FF9AC020E030E0A901C701D7
:100FF000B6010E943D2487FD93C0C701B6010E943F
:101000000C23862F9AD881E08093860681E0809316
:10101000BC0593E09093BD058093BE058093BF050A
:101020008093C0058093C1058093C2058093C3055A
:1010300087E896E0ACEBB5E007EA16E09D015C01BD
:10104000F501C190D190E190F1905F01F9014191DA
:101050009F01042E000C550B660B770BC416D506AA
:10106000E606F70609F45EC024EC35E04D91042E47
:10107000000C550B660B770BFC0141935193619368
:101080007193CF012A173B0789F783E0898380E3B7
:101090008A831B826091A7067091A8068091A90699
:1010A0009091AA06ECDD6B017C01C092E805D0921C
:1010B000E905E092EA05F092EB0520E030E040E837
:1010C00053E40E94032387FF32C020E030E0A901EF
:1010D000C701B6010E943D2487FD2BC0C701B601A0
:1010E0000E940C23862F8E010C5F1F4F21E043E0EE
:1010F000BE016F5F7F4F2DD88E8126960FB6F89474
:10110000DEBF0FBECDBFDF91CF911F910F91FF903A
:10111000EF90DF90CF90BF90AF9008958FEF72CF98
:1011200080E070CF0A151B0509F08ACFAECF8FEF94
:10113000DACF80E0D8CFCF92DF92EF92FF920F9379
:101140001F93CF93DF938091500690915106A09109
:101150005206B09153060197A105B10509F467C085
:101160001092540681E090E0A0E0B0E08093500639
:1011700090935106A0935206B093530680930C05AA
:1011800090930D05A0930E05B0930F0583E090E0BA
:10119000A0E0B0E08093100590931105A093120594
:1011A000B0931305E4E1F5E081E090E0A0E0B0E069
:1011B00081939193A193B19325E0EC32F207C1F7AB
:1011C00080E2ECE0F5E0A5E5B6E001900D928A95AD
:1011D000E1F760917506709176068091770690919F
:1011E00078064DDD6B017C01C092F005D092F105CF
:1011F000E092F205F092F30520E030E040E853E49D
:101200000E94032387FF95C020E030E0A901C701B9
:10121000B6010E943D2487FD8EC0C701B6010E9421
:101220000C23862F0E949D0081E08093540681E06C
:101230008093C40593E09093C5058093C605809381
:10124000C7058093C8058093C9058093CA0580931C
:10125000CB0505E516E0A4ECB5E025E736E0CD01C9
:10126000F801C190D190E190F190EC014991CE014B
:10127000042E000C550B660B770BC416D506E6063C
:10128000F70609F45AC08CEC95E04D91042E000C41
:10129000550B660B770BF801419351936193719352
:1012A0008F018A179B0789F783E0809336068FE0CA
:1012B0008093370680E880933806609175067091B8
:1012C00076068091770690917806D9DC6B017C01D7
:1012D000C092F005D092F105E092F205F092F3058C
:1012E00020E030E040E853E40E94032387FF2AC057
:1012F00020E030E0A901C701B6010E943D2487FD2E
:1013000023C0C701B6010E940C23862F03E316E019
:1013100021E043E066E376E00E94A9008091350673
:10132000DF91CF911F910F91FF90EF90DF90CF90C1
:1013300008958FEF77CF80E075CF2E173F0709F024
:1013400090CFB2CF8FEFE2CF80E0E0CFCF92DF92AD
:10135000EF92FF920F931F93CF93DF9380915006EC
:1013600090915106A0915206B09153060197A105A4
:10137000B10509F467C01092540681E090E0A0E046
:10138000B0E08093500690935106A0935206B0931C
:10139000530680938C0590938D05A0938E05B09392
:1013A0008F0583E090E0A0E0B0E0809390059093FB
:1013B0009105A0939205B0939305E4E9F5E081E0EF
:1013C00090E0A0E0B0E081939193A193B19325E0E8
:1013D000EC3AF207C1F780E2ECE8F5E0A5E5B6E00B
:1013E00001900D928A95E1F76091750670917606ED
:1013F000809177069091780642DC6B017C01C09267
:10140000FC05D092FD05E092FE05F092FF0520E07C
:1014100030E040E853E40E94032387FF93C020E0BC
:1014200030E0A901C701B6010E943D2487FD8CC0B0
:10143000C701B6010E940C23862F0E949D0081E007
:101440008093540681E08093DC0593E09093DD0562
:101450008093DE058093DF058093E0058093E105AE
:101460008093E2058093E30505E516E0ACEDB5E079
:1014700025E736E0CD01F801C190D190E190F190DF
:10148000EC014991CE01042E000C550B660B770B35
:10149000C416D506E606F70609F458C084EE95E0B2
:1014A0004D91042E000C550B660B770BF801419300
:1014B0005193619371938F018A179B0789F782E09B
:1014C000809339068FE080933A0680E880933B064C
:1014D00060917506709176068091770690917806F6
:1014E000CEDB6B017C01C092FC05D092FD05E09241
:1014F000FE05F092FF0520E030E040E853E40E9452
:10150000032387FF28C020E030E0A901C701B6010E
:101510000E943D2487FD21C0C701B6010E940C2313
:10152000862F0CE316E021E043E069E376E00E94B9
:10153000A900DF91CF911F910F91FF90EF90DF9065
:10154000CF9008958FEF79CF80E077CF2E173F07A8
:1015500009F092CFB4CF8FEFE4CF80E0E2CF80915B
:1015600000088F5F823050F480930008809101085A
:101570008F5F8A3030F4809301080895109200083C
:10158000F5CF1092010808958F929F92AF92BF926B
:10159000CF92DF92EF92FF920F931F93CF93DF933F
:1015A000CDB7DEB72F970FB6F894DEBF0FBECDBF15
:1015B000C0901A01D0901B01E0901C01F0901D0119
:1015C000A701960160914B0670914C0680914D06E3
:1015D00090914E060E940323882341F0C0924B064F
:1015E000D0924C06E0924D06F0924E061092AC0559
:1015F0001092AD051092AE051092AF051092B00595
:101600001092B1051092B2051092B3059E01235FAE
:101610003F4F5901CE010E966C01E12C8E01015F06
:101620001F4F23E04CEA55E064E670E080E090E074
:10163000DAD86091B7067091B8068091B90690919A
:10164000BA06EAD98C019093B6068093B5066091EC
:10165000AC0570E090E080E00E943823AB01BC0153
:10166000C801A3D96091C5067091C6068091C706CE
:101670009091C806D1D98C019093C4068093C3067B
:101680006091AD0570E090E080E00E943823AB01EE
:10169000BC01C8018AD96091D3067091D4068091AB
:1016A000D5069091D606B8D98C019093D206809336
:1016B000D1066091AE0570E090E080E00E94382392
:1016C000AB01BC01C80171D9C0901601D0901701BF
:1016D000E0901801F0901901A70196016091DF06D2
:1016E0007091E0068091E1069091E2060E9403234A
:1016F000882341F0C092DF06D092E006E092E10636
:10170000F092E2066EE070E080E090E0DBD890932B
:10171000DE068093DD0643E050E0BE01655F7F4F4B
:10172000C0D820911E0130911F01AB85BC850E945D
:10173000E92812E196958795779567951A95D1F7DF
:1017400060930006C0901201D0901301E090140144
:10175000F0901501A70196016091EB067091EC06DF
:101760008091ED069091EE060E940323882341F0BC
:10177000C092EB06D092EC06E092ED06F092EE06F7
:101780006FE070E080E090E09DD89093EA0680934F
:10179000E90643E050E0BE01655F7F4F82D82091AB
:1017A000200130912101AB85BC850E94E928B2E17E
:1017B0009695879577956795BA95D1F760930106C9
:1017C000C0900E01D0900F01E0901001F090110137
:1017D000A70196016091F7067091F8068091F906CD
:1017E0009091FA060E940323882341F0C092F706E5
:1017F000D092F806E092F906F092FA0660E170E005
:1018000080E090E05FD89093F6068093F50643E081
:1018100050E0BE01655F7F4F44D820912201309196
:101820002301AB85BC850E94E928A2E196958795A6
:1018300077956795AA95D1F760930206C0900A0143
:10184000D0900B01E0900C01F0900D01A7019601E2
:101850006091030770910407809105079091060736
:101860000E940323882341F0C0920307D09204070B
:10187000E0920507F092060761E170E080E090E0F9
:1018800021D8909302078093010743E050E0BE0106
:10189000655F7F4F06D82091240130912501AB85EB
:1018A000BC850E94E928F2E1969587957795679522
:1018B000FA95D1F760930306C0900601D090070116
:1018C000E0900801F0900901A701960160910F07CF
:1018D0007091100780911107909112070E940323C5
:1018E000882341F0C0920F07D0921007E0921107B1
:1018F000F092120762E170E080E090E00E946204E2
:1019000090930E0780930D0743E050E0BE01655FA2
:101910007F4F0E9451042091260130912701AB8511
:10192000BC850E94E928E2E19695879577956795B1
:10193000EA95D1F760930406C0900201D0900301AC
:10194000E0900401F0900501A701960160911B074A
:1019500070911C0780911D0790911E070E94032320
:10196000882341F0C0921B07D0921C07E0921D070C
:10197000F0921E0763E170E080E090E00E94620454
:1019800090931A078093190743E050E0BE01655F0A
:101990007F4F0E9451042091280130912901AB858D
:1019A000BC850E94E92852E19695879577956795C1
:1019B0005A95D1F760930506ECE4F3E080E091E0FE
:1019C000DF019C011D9221503040E1F760E0E62EDE
:1019D00066E0F62E8F01D7016D917D0170E090E0F9
:1019E00080E00E943823F801619371938193919371
:1019F0008F01F3E004361F0771F712E01D8381E3C6
:101A00008E838BE18F83BE016B5F7F4F81E896E011
:101A100085D91D8382E38E8380EC8F83BE016B5F4B
:101A20007F4F81E896E07AD91D8383E38E831F82FE
:101A3000BE016B5F7F4F81E896E070D91D8384E320
:101A40008E831F82BE016B5F7F4F81E896E066D96F
:101A50001D8385E38E8386E08F83BE016B5F7F4F9E
:101A600081E896E05BD91D834CE4A42E43E0B42EBC
:101A700016E30FEF1E83D5016D917D918D919D91A0
:101A80005D01FDD86B017C01C092E405D092E505B3
:101A9000E092E605F092E70520E030E040E853E40C
:101AA0000E94032387FF03C420E030E0A901C7019F
:101AB000B6010E943D2487FDF8C3C701B6010E940C
:101AC0000C236F83BE016B5F7F4F81E896E026D9C0
:101AD0001F5F1C3379F682E08D8380E38E8388E07C
:101AE0008F83BE016B5F7F4F81E896E017D90CDAD8
:101AF0000BDA84FFE3C18091820690918306A09166
:101B00008406B09185060197A105B10509F467C067
:101B10001092860681E090E0A0E0B0E0809382061B
:101B200090938306A0938406B093850680934C041B
:101B300090934D04A0934E04B0934F0484E090E042
:101B4000A0E0B0E08093500490935104A09352041D
:101B5000B0935304E4E5F4E081E090E0A0E0B0E06D
:101B600081939193A193B19324E0EC36F207C1F7EE
:101B700080E2ECE4F4E0A7E8B6E001900D928A95EB
:101B8000E1F76091A7067091A8068091A90690914F
:101B9000AA0675D86B017C01C092E405D092E505D8
:101BA000E092E605F092E70520E030E040E853E4FB
:101BB0000E94032387FF7DC320E030E0A901C70115
:101BC000B6010E943D2487FD76C3C701B6010E947D
:101BD0000C23862F0E949D0081E08093860681E081
:101BE0008093B40594E09093B5058093B6058093F7
:101BF000B7058093B8058093B9058093BA058093A3
:101C0000BB0527E8C22E26E0D22E34EBE32E35E0CA
:101C1000F32E9701F6014191519161917191D90192
:101C20008D919D01082E000C990BAA0BBB0B481738
:101C300059076A077B0709F440C327E836E0E4EB5D
:101C4000F5E08191482F880F550B660B770BD90172
:101C50004D935D936D937D939D01B5E0EC3BFB0748
:101C600081F785E0809306068FE08093070680E188
:101C700080930806809309066091A7067091A806D4
:101C80008091A9069091AA060E943F064B015C0133
:101C90008092E4059092E505A092E605B092E705F2
:101CA00020E030E040E853E40E94032387FF0BC3A9
:101CB00020E030E0A901C501B4010E943D2487FD68
:101CC00004C3C501B4010E940C23862F8E010F5F4F
:101CD0001F4F21E044E066E076E00E94A900809179
:101CE000820690918306A0918406B09185060197A3
:101CF000A105B10509F469C01092860681E090E063
:101D0000A0E0B0E08093820690938306A0938406BF
:101D1000B093850680936C0490936D04A0936E0439
:101D2000B0936F0484E090E0A0E0B0E08093700492
:101D300090937104A0937204B0937304E4E7F4E009
:101D40008CE894E041E050E060E070E04193519312
:101D5000619371938E179F07C9F780E2ECE6F4E078
:101D6000A7E8B6E001900D928A95E1F76091A70689
:101D70007091A8068091A9069091AA060E943F063C
:101D80004B015C018092E4059092E505A092E60586
:101D9000B092E70520E030E040E853E40E940323DE
:101DA00087FF95C220E030E0A901C501B4010E947F
:101DB0003D2487FD8EC2C501B4010E940C23862FED
:101DC0000E949D0081E08093860681E08093B405A7
:101DD00094E09093B5058093B6058093B705809302
:101DE000B8058093B9058093BA058093BB0524EBB1
:101DF00035E0E7E8F6E04191519161917191D901A7
:101E00008D919D01082E000C990BAA0BBB0B481756
:101E100059076A077B0709F45EC22CEB35E0F7012E
:101E200081917F01082E000C990BAA0BBB0BF601C8
:101E300081939193A193B1936F012E153F0579F78B
:101E400085E0809306068FE08093070680E180930B
:101E50000806109209066091A7067091A806809165
:101E6000A9069091AA060E943F066B017C01C092D0
:101E7000E405D092E505E092E605F092E70520E062
:101E800030E040E853E40E94032387FF2AC220E0A9
:101E900030E0A901C701B6010E943D2487FD23C29D
:101EA000C701B6010E940C23862F8E010F5F1F4FC2
:101EB00021E044E066E076E00E94A900809182067D
:101EC00090918306A0918406B09185060197A105A3
:101ED000B10509F468C01092860681E090E0A0E0A8
:101EE000B0E08093820690938306A0938406B0931B
:101EF000850680938C0490938D04A0938E04B093F8
:101F00008F0484E090E0A0E0B0E080939004909390
:101F10009104A0939204B0939304E4E9F4E081E087
:101F200090E0A0E0B0E081939193A193B19324E07D
:101F3000EC3AF207C1F780E2ECE8F4E0A7E8B6E09B
:101F400001900D928A95E1F76091A7067091A8061D
:101F50008091A9069091AA060E943F066B017C0120
:101F6000C092E405D092E505E092E605F092E7051F
:101F700020E030E040E853E40E94032387FFB5C12E
:101F800020E030E0A901C701B6010E943D2487FD91
:101F9000AEC1C701B6010E940C23862F0E949D008E
:101FA00081E08093860681E08093B40594E090936D
:101FB000B5058093B6058093B7058093B8058093E7
:101FC000B9058093BA058093BB0587E8C82E86E0E3
:101FD000D82E94EBE92E95E0F92E9701F601419168
:101FE000519161917191D9018D919D01082E000C43
:101FF000990BAA0BBB0B481759076A077B0709F413
:1020000078C127E836E0E4EBF5E08191482F880FAE
:10201000550B660B770BD9014D935D936D937D93B3
:102020009D01B5E0EC3BFB0781F785E08093060658
:102030008CE28093070684E08093080610920906DC
:102040006091A7067091A8068091A9069091AA06B2
:102050000E943F064B015C018092E4059092E505E9
:10206000A092E605B092E70520E030E040E853E4B6
:102070000E94032387FF43C120E030E0A901C5018E
:10208000B4010E943D2487FD3CC1C501B4010E94FA
:102090000C23862F8E010F5F1F4F21E044E066E086
:1020A00076E00E94A9008091820690918306A0911B
:1020B0008406B09185060197A105B10509F468C0B1
:1020C0001092860681E090E0A0E0B0E08093820666
:1020D00090938306A0938406B09385068093AC0406
:1020E0009093AD04A093AE04B093AF0483E090E06E
:1020F000A0E0B0E08093B0049093B104A093B20448
:10210000B093B304E4EBF4E081E090E0A0E0B0E051
:1021100081939193A193B19324E0EC3CF207C1F732
:1021200080E2ECEAF4E0A7E8B6E001900D928A952F
:10213000E1F76091A7067091A8068091A906909199
:10214000AA060E943F064B015C018092E405909232
:10215000E505A092E605B092E70520E030E040E812
:1021600053E40E94032387FFCEC020E030E0A901A2
:10217000C501B4010E943D2487FDC7C0C501B4015B
:102180000E940C23862F0E949D0081E0809386068A
:1021900081E08093B40593E09093B5058093B605F4
:1021A0008093B7058093B8058093B9058093BA05ED
:1021B0008093BB0524EB35E0E7E8F6E041915191CF
:1021C00061917191D9018D919D01082E000C990B9F
:1021D000AA0BBB0B481759076A077B0709F497C07E
:1021E0002CEB35E0F70181917F01082E000C990B53
:1021F000AA0BBB0BF60181939193A193B1936F014D
:102200002E153F0579F783E08D838DE28E831F8243
:102210006091A7067091A8068091A9069091AA06E0
:102220000E943F066B017C01C092E405D092E50557
:10223000E092E605F092E70520E030E040E853E464
:102240000E94032387FF69C020E030E0A901C70195
:10225000B6010E943D2487FD62C0C701B6010E94FD
:102260000C23862F8E01085F1F4F21E043E0BE0143
:102270006B5F7F4F0E94A9000E9484076F8584E0F6
:102280000E948F002F960FB6F894DEBF0FBECDBF11
:10229000DF91CF911F910F91FF90EF90DF90CF9042
:1022A000BF90AF909F908F9008951F820BCC0F83AB
:1022B00009CC8FEF8FCC80E08DCC86E0E73AF80731
:1022C00009F0A9CCCECC8FEF01CD80E0FFCC8FEF11
:1022D00077CD80E075CD86E0E73AF80709F08BCD41
:1022E000AFCD8FEFE2CD80E0E0CD8FEF57CE80E035
:1022F00055CE86E0E73AF80709F071CE96CE8FEF1B
:10230000C9CE80E0C7CE8FEF3ECF80E03CCF86E0E5
:10231000E73AF80709F052CF76CF8FEFA3CF80E0EE
:10232000A1CF61E09091EF0780910001981708F428
:1023300060E087E00E948F008091EF0790912D016F
:10234000890F8093EF0790910101981720F48091F5
:102350002B018093EF0708952F923F924F925F9247
:102360006F927F928F929F92AF92BF92CF92DF92A5
:10237000EF92FF920F931F93CF93DF93CDB7DEB70A
:1023800029970FB6F894DEBF0FBECDBF84E090E072
:102390000E94422180910A0890910B08A0910C089C
:1023A000B0910D0880931A0190931B01A0931C011A
:1023B000B0931D014DEF57E025E0FA0111922A95E7
:1023C000E9F765E476E028EB31E0FB01A901119221
:1023D00041505040E1F721E02093F10780934B06F4
:1023E00090934C06A0934D06B0934E06812C912CF1
:1023F000540183948092460690924706A092480624
:10240000B09249060E94CA03F82E0E9449048987A7
:10241000682F70E090E080E00E943823609375069A
:10242000709376068093770690937806F11046C1F4
:10243000009150061091510620915206309153069A
:10244000013011052105310509F45BC010925406D5
:102450008092500690925106A0925206B092530676
:102460008092EC049092ED04A092EE04B092EF04FE
:102470008092F0049092F104A092F204B092F304DE
:10248000E4EFF4E001E010E020E030E055E0EC3073
:10249000F50709F055C726E030E030934006209359
:1024A0003F0620E2ECEEF4E0A5E5B6E001900D92E7
:1024B0002A95E1F70E943F064B015C018092EC05F2
:1024C0009092ED05A092EE05B092EF0520E030E08D
:1024D00040E853E40E94032387FF37C720E030E041
:1024E000A901C501B4010E943D2487FD30C7C50183
:1024F000B4010E940C23862F0E949D0081E08093EE
:102500005406E5E5F6E0DF0190E080E088309105D3
:10251000A9F04D915D916D917D91019641305105EC
:102520006105710599F381E090E0A0E0B0E026E05C
:10253000E537F20709F00DC788E090E09093400678
:1025400080933F0680EC89876091750670917606CE
:1025500080917706909178060E943F064B015C01BE
:102560008092EC059092ED05A092EE05B092EF05F9
:1025700020E030E040E853E40E94032387FFEEC6EA
:1025800020E030E0A901C501B4010E943D2487FD8F
:1025900005C0C501B4010E940C23F62E8E01085F10
:1025A0001F4F21E041E0BE01675F7F4F8F2D0E94EA
:1025B000A9000E94A6090E949B08803809F07CC0EF
:1025C00010922A0610922B0610922C064CE256E02E
:1025D0006BE276E08AE296E00E941E0380912A0672
:1025E000811108C090912B06911104C090912C0686
:1025F000992361F112E010932D069AE290932E0632
:1026000080932F066DE276E08FE496E00E948E06BE
:1026100010932D0689E280932E0680912B068093DD
:102620002F066DE276E08FE496E00E948E0610930E
:102630002D0688E280932E0680912C0680932F062B
:102640006DE276E08FE496E00E948E0612E0109331
:102650002D068BE280932E0683E280932F066DE297
:1026600076E08FE496E00E948E0610932D068CE0B3
:1026700080932E0610922F066DE276E08FE496E0AE
:102680000E948E0610932D068DE080932E061092E8
:102690002F066DE276E08FE496E00E948E0610939E
:1026A0002D068FE080932E0610922F066DE276E0C5
:1026B0008FE496E00E948E060E94CD0386E296E0AB
:1026C0009F938F9382E296E09F938F93BEE18B2E30
:1026D000B6E09B2E1AE1A12E16E0B12E06E1C02E27
:1026E00006E0D02EAE014F5F5F4F7A0102E116E0A7
:1026F0002EE036E04AE056E0BE016C5F7F4FCE012F
:1027000007960E947B030E94A6090E949B080F90D7
:102710000F900F900F90803869F58F81813009F00C
:1027200020C602E00093300610E6109331061093A5
:10273000320660E376E08FE496E00E948E06009316
:10274000300680E7809331061093320660E376E02E
:102750008FE496E00E948E0682E0809330068FE040
:10276000809331061092320660E376E08FE496E0C3
:102770000E948E060E94D10323E040E064E670E0F0
:1027800080E090E00E943604DD24D394D0924A0683
:102790001092AD06D092F20742E3642E60922F07AA
:1027A00053E3752E7092300764E3262E2092310792
:1027B00075E3372E30923207E6E34E2E4092330710
:1027C000F7E35F2E5092340748E34093350759E30F
:1027D00050933607A1E3CA2EC092370780E3809357
:1027E0003807C0923907C0923A07C0923B076092FF
:1027F0003C07C0923D0770923E078FE297E09093AE
:10280000B4068093B30683E090E0A0E0B0E080934C
:10281000B7069093B806A093B906B093BA06109283
:10282000B206812C912C540183948092AE06909232
:10283000AF06A092B006B092B106E12CF12C870150
:10284000A801970163E070E080E090E00E945005ED
:102850009093B6068093B5066091B7067091B8065E
:102860008091B9069091BA060E940C059093B60625
:102870008093B5060E94D404D092B2061092BB0693
:10288000D092F30760926F077092700720927107E1
:1028900030927207409273075092740798E39093B6
:1028A0007507A9E3A0937607C0927707B0E3B093CA
:1028B0007807C0927907C0927A07C0927B0760922E
:1028C0007C07C0927D0770927E078FE697E0909319
:1028D000C2068093C10685E090E0A0E0B0E080935E
:1028E000C5069093C606A093C706B093C80610927B
:1028F000C0068092BC069092BD06A092BE06B09221
:10290000BF06A801970165E070E080E090E00E94BA
:1029100050059093C4068093C3066091C5067091DC
:10292000C6068091C7069091C8060E940C05909338
:10293000C4068093C3060E94D404D092C0061092AD
:10294000C906D092F4076092AF077092B007209248
:10295000B1073092B2074092B3075092B407E8E350
:10296000E093B507F9E3F093B607C092B70720E309
:102970002093B807C092B907C092BA07C092BB07AC
:102980006092BC07C092BD077092BE078FEA97E0C5
:102990009093D0068093CF0686E090E0A0E0B0E070
:1029A0008093D3069093D406A093D506B093D60611
:1029B0001092CE068092CA069092CB06A092CC06C8
:1029C000B092CD06A801970166E070E080E090E04B
:1029D0000E9450059093D2068093D1066091D30651
:1029E0007091D4068091D5069091D6060E940C0570
:1029F0009093D2068093D1060E94D404D092CE0642
:102A00001092D706D092F507809116019091170188
:102A1000A0911801B09119018093DF069093E00610
:102A2000A093E106B093E2061092DC068092D806ED
:102A30009092D906A092DA06B092DB066EE070E0C2
:102A400080E090E00E94A6049093DE068093DD066D
:102A5000D092DC061092E306D092F6078091120124
:102A600090911301A0911401B09115018093EB0690
:102A70009093EC06A093ED06B093EE061092E80654
:102A80008092E4069092E506A092E606B092E706F0
:102A90006FE070E080E090E00E94A6049093EA0668
:102AA0008093E906D092E8061092EF06D092F707DD
:102AB00080910E0190910F01A0911001B091110130
:102AC0008093F7069093F806A093F906B093FA0660
:102AD0001092F4068092F0069092F106A092F2060F
:102AE000B092F30660E170E080E090E00E94A604FE
:102AF0009093F6068093F506D092F4061092FB06AA
:102B0000D092F80780910A0190910B01A0910C01DD
:102B1000B0910D018093030790930407A0930507DC
:102B2000B0930607109200078092FC069092FD0673
:102B3000A092FE06B092FF0661E170E080E090E0B6
:102B40000E94A6049093020780930107D092000789
:102B500010920707D092F907809106019091070122
:102B6000A0910801B091090180930F07909310077D
:102B7000A0931107B093120710920C0780920807D8
:102B800090920907A0920A07B0920B0762E170E0E9
:102B900080E090E00E94A60490930E0780930D07BA
:102BA000D0920C0710921307D092FA07809102017D
:102BB00090910301A0910401B091050180931B073E
:102BC00090931C07A0931D07B0931E07109218073F
:102BD0008092140790921507A0921607B0921707DB
:102BE00063E170E080E090E00E94A60490931A07F1
:102BF00080931907D09218071092820610928306CC
:102C000010928406109285061092810610927B061F
:102C1000D092FB071092800680927C0690927D06EF
:102C2000A0927E06B0927F060E944904682F70E051
:102C300090E080E00E9438236093A7067093A80676
:102C40008093A9069093AA060E94CA03F82E8111C8
:102C50002FC38091820690918306A0918406B09143
:102C600085060197A105B10509F465C01092860695
:102C70008092820690928306A0928406B092850686
:102C800080922C0590922D05A0922E05B0922F05D2
:102C90008092300590923105A0923205B0923305B2
:102CA000E4E3F5E08CE495E041E050E060E070E0C2
:102CB00041935193619371938E179F07C9F780E2F7
:102CC000ECE2F5E0A7E8B6E001900D928A95E1F715
:102CD0006091A7067091A8068091A9069091AA0616
:102CE0000E943F064B015C018092F4059092F5052D
:102CF000A092F605B092F70520E030E040E853E4FA
:102D00000E94032387FD02C00C94A51F20E030E041
:102D1000A901C501B4010E943D2487FF02C00C94A3
:102D2000A81FC501B4010E940C23862F0E949D009C
:102D300081E08093860627E8A22E26E0B22E37EAAD
:102D4000832E36E0932EF50181919191A191B1915D
:102D50000197A105B10511F40C94AB1FE7E8F6E06B
:102D600081E090E0A0E0B0E081939193A193B193D2
:102D70008E169F06C9F780EC88876091A706709130
:102D8000A8068091A9069091AA060E943F062B01F1
:102D90003C014092F4055092F5056092F605709260
:102DA000F70520E030E040E853E40E94032387FD6C
:102DB00002C00C94B21F20E030E0A901C301B201AF
:102DC0000E943D2487FF02C00C94B51FC301B201CD
:102DD0000E940C23862F8E01095F1F4F21E041E0E6
:102DE000BE01685F7F4F0E94A9008091820690918A
:102DF0008306A0918406B09185060197A105B105CF
:102E000009F46CC01092860681E090E0A0E0B0E08A
:102E10008093820690938306A0938406B0938506E0
:102E200080934C0590934D05A0934E05B0934F05AC
:102E300083E090E0A0E0B0E08093500590935105CE
:102E4000A0935205B0935305E4E5F5E081E090E0EE
:102E5000A0E0B0E081939193A193B19345E0EC366B
:102E6000F407C1F780E2ECE4F5E0A7E8B6E00190F2
:102E70000D928A95E1F76091A7067091A80680915E
:102E8000A9069091AA060E943F062B013C014092A0
:102E9000F4055092F5056092F6057092F70520E072
:102EA00030E040E853E40E94032387FD02C00C9405
:102EB000B81F20E030E0A901C301B2010E943D2407
:102EC00087FF02C00C94BB1FC301B2010E940C23F8
:102ED000862F0E949D0081E08093860681E080938A
:102EE000CC0593E09093CD058093CE058093CF05DC
:102EF0008093D0058093D1058093D2058093D3052C
:102F00009CECC92E95E0D92E9601E7E8F6E04191B8
:102F1000519161917191D9018D919D01082E000C03
:102F2000990BAA0BBB0B481759076A077B0711F4CB
:102F30000C94BE1F27E836E0ECECF5E08191482FB9
:102F4000880F550B660B770BD9014D935D936D93ED
:102F50007D939D01B5E0E43DFB0781F782E08C8322
:102F60008FE08D8380E88E836091A7067091A8061C
:102F70008091A9069091AA060E943F062B013C0170
:102F80004092F4055092F5056092F6057092F705AF
:102F900020E030E040E853E40E94032387FFF5C7B8
:102FA00020E030E0A901C301B2010E943D2487FD69
:102FB000EEC7C301B2010E940C23862F8E010F5F62
:102FC0001F4F21E043E0BE016C5F7F4F0E94A900CC
:102FD0008091820690918306A0918406B091850627
:102FE0000197A105B10509F469C01092860681E038
:102FF00090E0A0E0B0E08093820690938306A093D7
:103000008406B093850680936C0590936D05A0931C
:103010006E05B0936F0583E090E0A0E0B0E0809390
:10302000700590937105A0937205B0937305E4E762
:10303000F5E08CE895E041E050E060E070E041931D
:103040005193619371938E179F07C9F780E2ECE665
:10305000F5E0A7E8B6E001900D928A95E1F760915E
:10306000A7067091A8068091A9069091AA060E94D1
:103070003F062B013C014092F4055092F505609209
:10308000F6057092F70520E030E040E853E40E9436
:10309000032387FF7EC720E030E0A901C301B2010E
:1030A0000E943D2487FD77C7C301B2010E940C2313
:1030B000862F0E949D0081E08093860681E08093A8
:1030C000CC0593E09093CD058093CE058093CF05FA
:1030D0008093D0058093D1058093D2058093D3054A
:1030E0002CEC35E0E7E8F6E0419151916191719166
:1030F000D9018D919D01082E000C990BAA0BBB0BD9
:10310000481759076A077B0709F447C7F6018191F9
:103110006F01082E000C990BAA0BBB0BF5018193D4
:103120009193A193B1935F01F4EDCF16F5E0DF0623
:1031300069F783E08C838FE08D8380E88E836091D4
:10314000A7067091A8068091A9069091AA060E94F0
:103150003F064B015C018092F4059092F505A09228
:10316000F605B092F70520E030E040E853E40E9415
:10317000032387FF18C720E030E0A901C501B4018F
:103180000E943D2487FD05C0C501B4010E940C23A7
:10319000F62E8E010F5F1F4F21E043E0BE016C5FF2
:1031A0007F4F8F2D0E94A9008B81803809F07EC04F
:1031B0001C821D821E82AE014A5F5F4FBE016B5FA3
:1031C0007F4FCE0104960E941E038C81811106C0A0
:1031D0009D81911103C09E81992321F112E01983F1
:1031E0009AE29A838B83BE016F5F7F4F81E896E0FE
:1031F0000E948E06198389E28A838D818B83BE01AA
:103200006F5F7F4F81E896E00E948E06198388E207
:103210008A838E818B83BE016F5F7F4F81E896E04A
:103220000E948E0612E019838BE28A8383E28B83ED
:10323000BE016F5F7F4F81E896E00E948E06198382
:103240008CE08A831B82BE016F5F7F4F81E896E02E
:103250000E948E0619838DE08A831B82BE016F5FF8
:103260007F4F81E896E00E948E06198300E60A836C
:103270000B83BE016F5F7F4F81E896E00E948E0650
:10328000198380E78A830B83BE016F5F7F4F81E8DC
:1032900096E00E948E0619838FE08A831B82BE010E
:1032A0006F5F7F4F81E896E00E948E060E94CD03FB
:1032B00011E0109380061092E7071093FC07C12CD1
:1032C000D12C7601C394C092E807D092E907E0922E
:1032D000EA07F092EB0761E084E00E948700109318
:1032E000EC071092DF071093F007C092E007D0922E
:1032F000E107E092E207F092E30761E087E00E94D5
:1033000087001093E40780912C018093EF072996A2
:103310000FB6F894DEBF0FBECDBFDF91CF911F91E6
:103320000F91FF90EF90DF90CF90BF90AF909F9064
:103330008F907F906F905F904F903F902F90089567
:103340000193119321933193A1C88FEFD5C880E0E9
:10335000D3C881939193A193B193E9C8FF24FA94C0
:103360001DC940910A0650910B0660910C067091A0
:103370000D0680910E0690910F06A0911006B09157
:1033800011068090120690901306A0901406B0903B
:1033900015062C81222309F496C37F7140930A06F7
:1033A00050930B0660930C0670930D06BF718093CB
:1033B0000E0690930F06A0931006B09311065FE1DE
:1033C000B5228092120690921306A0921406B09233
:1033D000150612E01093300680E68093310680E4F3
:1033E0008093320660E376E08FE496E00E948E06DA
:1033F0001093300680E28093310680910A06909106
:103400000B06A0910C06B0910D0625E1B695A79587
:10341000979587952A95D1F78093320660E376E0F9
:103420008FE496E00E948E061093300681E280932E
:10343000310640910A0650910B0660910C0670917E
:103440000D06DB01CA0132E1B695A79597958795E0
:103450003A95D1F745E0880F991F4A95E1F78076B4
:10346000962F93709860892B8093320660E376E004
:103470008FE496E00E948E061093300682E28093DD
:10348000310680910B068093320660E376E08FE48C
:1034900096E00E948E061093300683E280933106F8
:1034A00080910A068093320660E376E08FE496E02E
:1034B0000E948E06109330061092310680910E06FF
:1034C00090910F06A0911006B091110655E1B695A6
:1034D000A795979587955A95D1F78093320660E323
:1034E00076E08FE496E00E948E061093300681E02D
:1034F0008093310680910E0690910F06A0911006E0
:10350000B09111062A2F2370286062E1B695A79525
:10351000979587956A95D1F775E0880F991F7A95E9
:10352000E1F78076822B8093320660E376E08FE4C9
:1035300096E00E948E06109330061093310680911B
:103540000F068093320660E376E08FE496E00E94F7
:103550008E061093300683E08093310680910E062C
:103560008093320660E376E08FE496E00E948E0658
:103570001093300684E0809331068091120690917A
:103580001306A0911406B0911506E5E1B695A7952E
:1035900097958795EA95D1F78093320660E376E0B8
:1035A0008FE496E00E948E061093300685E08093AB
:1035B00031064091120650911306609114067091E5
:1035C0001506DB01CA01F2E1B695A7959795879597
:1035D000FA95D1F7A5E0880F991FAA95E1F78076B3
:1035E000962F93709860892B8093320660E376E083
:1035F0008FE496E00E948E061093300686E080935A
:103600003106809113068093320660E376E08FE402
:1036100096E00E948E061093300687E08093310674
:10362000809112068093320660E376E08FE496E0A4
:103630000E948E064091160650911706609118065A
:103640007091190680911A0690911B06A0911C0694
:10365000B0911D06C0901E06D0901F06E090200677
:10366000F090210640902206509023066090240698
:10367000709025068090260690902706A090280638
:10368000B09029062981222309F4FBC27F7140935F
:103690001606509317066093180670931906BF71AB
:1036A00080931A0690931B06A0931C06B0931D06E8
:1036B0009FE1F922C0921E06D0921F06E0922006DA
:1036C000F0922106AFE17A22409222065092230620
:1036D0006092240670922506BFE1BB2280922606E6
:1036E00090922706A0922806B092290612E0109325
:1036F000300680E78093310680E48093320660E3F1
:1037000076E08FE496E00E948E061093300684E205
:10371000809331068091160690911706A0911806A5
:10372000B091190605E1B695A795979587950A95E5
:10373000D1F78093320660E376E08FE496E00E9452
:103740008E061093300685E280933106409116066E
:10375000509117066091180670911906DB01CA0195
:1037600022E1B695A795979587952A95D1F735E0EB
:10377000880F991F3A95E1F78076962F937098609D
:10378000892B8093320660E376E08FE496E00E9416
:103790008E061093300686E28093310680911706DC
:1037A0008093320660E376E08FE496E00E948E0616
:1037B0001093300687E2809331068091160680933D
:1037C000320660E376E08FE496E00E948E06109366
:1037D000300688E08093310680911A0690911B068E
:1037E000A0911C06B0911D0645E1B695A795979549
:1037F00087954A95D1F78093320660E376E08FE4AF
:1038000096E00E948E061093300689E08093310680
:1038100080911A0690911B06A0911C06B0911D067E
:103820002A2F2370286052E1B695A7959795879522
:103830005A95D1F765E0880F991F6A95E1F7807670
:10384000822B8093320660E376E08FE496E00E945C
:103850008E06109330068AE08093310680911B0615
:103860008093320660E376E08FE496E00E948E0655
:10387000109330068BE08093310680911A06809376
:10388000320660E376E08FE496E00E948E061093A5
:10389000300680E18093310680911E0690911F06CC
:1038A000A0912006B091210675E1B695A795979550
:1038B00087957A95D1F78093320660E376E08FE4BE
:1038C00096E00E948E061093300681E180933106C7
:1038D00080911E0690911F06A0912006B0912106AE
:1038E0002A2F23702860E2E1B695A79597958795D2
:1038F000EA95D1F7F5E0880F991FFA95E1F7807600
:10390000822B8093320660E376E08FE496E00E949B
:103910008E061093300682E18093310680911F0657
:103920008093320660E376E08FE496E00E948E0694
:103930001093300683E18093310680911E068093B8
:10394000320660E376E08FE496E00E948E061093E4
:10395000300684E1809331068091220690912306FF
:10396000A0912406B091250605E1B695A7959795F7
:1039700087950A95D1F78093320660E376E08FE46D
:1039800096E00E948E061093300685E18093310602
:103990008091220690912306A0912406B0912506DD
:1039A0002A2F2370286032E1B695A79597958795C1
:1039B0003A95D1F745E0880F991F4A95E1F780764F
:1039C000822B8093320660E376E08FE496E00E94DB
:1039D0008E061093300686E180933106809123068F
:1039E0008093320660E376E08FE496E00E948E06D4
:1039F0001093300687E180933106809122068093F0
:103A0000320660E376E08FE496E00E948E06109323
:103A1000300688E180933106809126069091270632
:103A2000A0912806B091290655E1B695A7959795DE
:103A300087955A95D1F78093320660E376E08FE45C
:103A400096E00E948E061093300689E1809331063D
:103A50008091260690912706A0912806B09129060C
:103A60002A2F2370286062E1B695A79597958795D0
:103A70006A95D1F775E0880F991F7A95E1F78076FE
:103A8000822B8093320660E376E08FE496E00E941A
:103A90008E06109330068AE18093310680912706C6
:103AA0008093320660E376E08FE496E00E948E0613
:103AB000109330068BE18093310680912606809327
:103AC00032060C94A6135770509342064093410659
:103AD0009770909344068093430612E0109330064B
:103AE00080E68093310600E20093320660E376E0E0
:103AF0008FE496E00E948E06109330060093310604
:103B00008091410690914206E3E096958795EA956B
:103B1000E1F78093320660E376E08FE496E00E945E
:103B20008E061093300681E2809331068091410623
:103B300090914206F5E0880F991FFA95E1F780937E
:103B4000320660E376E08FE496E00E948E061093E2
:103B5000300682E2809331061092320660E376E00E
:103B60008FE496E00E948E061093300683E28093E5
:103B700031061092320660E376E08FE496E00E9410
:103B80008E06109330061092310680914306909174
:103B90004406A3E096958795AA95E1F780933206AF
:103BA00060E376E08FE496E00E948E061093300684
:103BB00081E0809331068091430690914406B5E000
:103BC000880F991FBA95E1F78093320660E376E09B
:103BD0008FE496E00E948E06109330061093310613
:103BE0001092320660E376E08FE496E00E948E0643
:103BF0001093300683E0809331061092320660E322
:103C000076E08FE496E00E948E061093300684E002
:103C10008093310687E09822C40103E0969587954A
:103C20000A95E1F78093320660E376E08FE496E050
:103C30000E948E061093300685E08093310685E061
:103C4000880C991C8A95E1F78092320660E376E051
:103C50008FE496E00E948E061093300686E08093F3
:103C600031061092320660E376E08FE496E00E941F
:103C70008E061093300687E080933106109232064C
:103C8000D3CC57705093420640934106977090935F
:103C900044068093430612E01093300680E7809339
:103CA000310680E28093320660E376E08FE496E0AE
:103CB0000E948E061093300684E280933106809134
:103CC00041069091420603E0969587950A95E1F7A3
:103CD0008093320660E376E08FE496E00E948E06E1
:103CE0001093300685E280933106809141069091D1
:103CF000420625E0880F991F2A95E1F78093320646
:103D000060E376E08FE496E00E948E061093300622
:103D100086E2809331061092320660E376E08FE40B
:103D200096E00E948E061093300687E2809331065B
:103D30001092320660E376E08FE496E00E948E06F1
:103D40001093300688E0809331068091430690916D
:103D5000440633E0969587953A95E1F780933206CD
:103D600060E376E08FE496E00E948E0610933006C2
:103D700089E080933106809143069091440645E0A6
:103D8000880F991F4A95E1F78093320660E376E049
:103D90008FE496E00E948E06109330068AE08093AE
:103DA00031061092320660E376E08FE496E00E94DE
:103DB0008E06109330068BE0809331061092320607
:103DC00060E376E08FE496E00E948E061093300662
:103DD00080E180933106E7E0DE22C60153E096954C
:103DE00087955A95E1F78093320660E376E08FE499
:103DF00096E00E948E061093300681E18093310692
:103E000065E0CC0CDD1C6A95E1F7C092320660E3F8
:103E100076E08FE496E00E948E061093300682E1F1
:103E2000809331061092320660E376E08FE496E0EC
:103E30000E948E061093300683E180933106109223
:103E4000320660E376E08FE496E00E948E061093DF
:103E5000300684E180933106F7E05F22C20173E00F
:103E6000969587957A95E1F78093320660E376E040
:103E70008FE496E00E948E061093300685E18093D1
:103E80003106E5E0440C551CEA95E1F74092320614
:103E900060E376E08FE496E00E948E061093300691
:103EA00086E1809331061092320660E376E08FE47B
:103EB00096E00E948E061093300687E180933106CB
:103EC0001092320660E376E08FE496E00E948E0660
:103ED0001093300688E18093310627E09222C401D6
:103EE000F3E096958795FA95E1F78093320660E3C3
:103EF00076E08FE496E00E948E061093300689E10A
:103F000080933106A5E0880C991CAA95E1F7809270
:103F1000320660E376E08FE496E00E948E0610930E
:103F200030068AE1809331061092320660E376E033
:103F30008FE496E00E948E06109330068BE180930A
:103F40003106109232060C94A6138FEF0C9496163D
:103F500080E00C9496168E169F0611F00C94A41611
:103F60000C94BB168FEF0C94EB1680E00C94EB16C0
:103F70008FEF0C94691780E00C9469178E169F06DA
:103F800011F00C9487170C94AE178FEF17C880E0D0
:103F900015C88FEF8EC880E08CC846E0E73AF4077A
:103FA00009F0A2C8C6C8FF24FA94F3C88091450658
:103FB000811103C081E08093450680914F068111F5
:103FC0001BC081E080934F0680915006909151066E
:103FD000A0915206B09153060197A105B10561F475
:103FE00082E090E0A0E0B0E080935006909351060C
:103FF000A0935206B09353068091AD06811107C07D
:1040000081E08093AD068DEA96E00E940A068091D9
:10401000BB06811107C081E08093BB068BEB96E065
:104020000E940A068091C906811107C081E0809331
:10403000C90689EC96E00E940A068091D706811194
:104040001FC081E08093D7068091D8069091D90651
:10405000A091DA06B091DB060197A105B10581F4C4
:104060008091DC06882361F06EE070E080E090E0F3
:104070000E9462049093DE068093DD060E94C904CC
:104080008091E30681111FC081E08093E306809157
:10409000E4069091E506A091E606B091E706019747
:1040A000A105B10581F48091E806882361F06FE0F5
:1040B00070E080E090E00E9462049093EA068093B2
:1040C000E9060E94C9048091EF0681111FC081E0BA
:1040D0008093EF068091F0069091F106A091F20690
:1040E000B091F3060197A105B10581F48091F40622
:1040F000882361F060E170E080E090E00E9462045B
:104100009093F6068093F5060E94C9048091FB0601
:1041100081111FC081E08093FB068091FC06909185
:10412000FD06A091FE06B091FF060197A105B1051D
:1041300081F480910007882361F061E170E080E004
:1041400090E00E94620490930207809301070E940E
:10415000C9048091070781111FC081E08093070780
:104160008091080790910907A0910A07B0910B0769
:104170000197A105B10581F480910C07882361F0B6
:1041800062E170E080E090E00E94620490930E078C
:1041900080930D070E94C9048091130781111FC0ED
:1041A00081E0809313078091140790911507A091E7
:1041B0001607B09117070197A105B10581F4809109
:1041C0001807882361F063E170E080E090E00E94CE
:1041D000620490931A07809319070E94C904809182
:1041E0007B06811103C081E080937B06809181066C
:1041F00081111BC081E0809381068091820690919D
:104200008306A0918406B09185060197A105B105AA
:1042100061F482E090E0A0E0B0E0809382069093A9
:104220008306A0938406B09385068091E7078111E9
:1042300003C081E08093E7078091DF07811103C00D
:1042400081E08093DF07089560E070E080E89FE7F9
:10425000089560E070E080E89FE7089560E070E016
:1042600080E89FEF089560E070E080E89FEF089598
:1042700060E070E080EC9FEF089560E070E080EC1B
:104280009FEF0895F5DF60930E0870930F088093F9
:10429000100890931108F1DF6093020870930308EF
:1042A0008093040890930508CFDF60930A08709309
:1042B0000B0880930C0890930D08CBDF60930608E1
:1042C000709307088093080890930908C7DF6093EC
:1042D0001208709313088093140890931508C3DF95
:1042E0006093160870931708809318089093190824
:1042F000089540E855E260E070E090E080E002D090
:104300000C94A70026E08FEA92E030C61F920F922D
:104310000FB60F9211242F933F934F935F936F9398
:104320007F938F939F93AF93BF93EF93FF938FE808
:104330009DEF909385008093840032D0FF91EF91A0
:10434000BF91AF919F918F917F916F915F914F91AD
:104350003F912F910F900FBE0F901F9018958FE8EF
:104360009DEF9093850080938400AFE6B0E08C9140
:104370008E7F8C93E0E8F0E080818C7F8083E1E8A1
:10438000F0E08081877E808380818460808380816B
:104390008C7F80838C9181608C93089581E0089557
:1043A000CF93DF9300D01F92CDB7DEB780919D02EF
:1043B00091E0980F90939D02882371F021E030E006
:1043C0003093A1022093A00280939D020F900F9042
:1043D0000F90DF91CF910895CE0101960E94300693
:1043E00078940E94AF0AF89480919D028150809346
:1043F0009D028A81811136C08B8181113FC08091DD
:104400009E028111E3CF80919B02882389F081E095
:1044100080939E0278940E94C40AF89480919B0233
:10442000815080939B0280919E02815080939E02D6
:1044300080919F028111CACF80919C02882331F222
:1044400081E080939F0278940E949111F89480916A
:104450009C02815080939C0280919F0281508093A6
:104460009F02B4CF80919B0291E0980F90939B02A2
:10447000882309F4C1CF21E030E00BC080919C0279
:1044800091E0980F90939C0222E030E0882309F499
:10449000B6CF41E050E05093A1024093A0022656CF
:1044A0003D4FF9018083ABCFCF93DF9310921B0870
:1044B00010921A084ED31DDFC0913B02D0913C02EE
:1044C000198218820E94AC114ADF81E0288139816B
:1044D000232B09F080E080931A08789478948091D7
:1044E0001A08811107C062DDF89490E080E0DF9146
:1044F000CF91089581E028813981232B09F480E050
:1045000080931B0890911B0881E0911180E08093BB
:104510001A0844DFE4CF5058BB27AA270ED05CC14D
:104520004DD130F052D120F031F49F3F11F41EF400
:1045300042C10EF4E095E7FB0FC1E92F5ED180F395
:10454000BA17620773078407950718F071F49EF590
:104550008DC10EF4E0950B2EBA2FA02D0B01B901E1
:1045600090010C01CA01A0011124FF27591B99F0E9
:10457000593F50F4503E68F11A16F040A22F232FF5
:10458000342F4427585FF3CF469537952795A79545
:10459000F0405395C9F77EF41F16BA0B620B730BEC
:1045A000840BBAF09150A1F0FF0FBB1F661F771F5D
:1045B000881FC2F70EC0BA0F621F731F841F48F412
:1045C000879577956795B795F7959E3F08F0B3CF98
:1045D0009395880F08F09927EE0F97958795089582
:1045E0002ED180F09F3740F491110EF440C160E06D
:1045F00070E080E89FE3089526F01B16611D711D91
:10460000811DB0C0CAC084D008F481E0089504D0F0
:104610006894B1112CC10895F8D088F09F5790F09C
:10462000B92F9927B751A0F0D1F0660F771F881FD7
:10463000991F1AF0BA95C9F712C0B13081F016D19E
:10464000B1E0089513C1672F782F8827B85F39F03C
:10465000B93FCCF3869577956795B395D9F73EF436
:1046600090958095709561957F4F8F4F9F4F0895DE
:10467000E89409C097FB3EF49095809570956195FC
:104680007F4F8F4F9F4F9923A9F0F92F96E9BB27B2
:104690009395F695879577956795B795F111F8CF2E
:1046A000FAF4BB0F11F460FF1BC06F5F7F4F8F4F99
:1046B0009F4F16C0882311F096E911C0772321F08F
:1046C0009EE8872F762F05C0662371F096E8862F27
:1046D00070E060E02AF09A95660F771F881FDAF77E
:1046E000880F9695879597F90895A9D080F09F3700
:1046F00040F491110EF0BBC060E070E080E89FEBE9
:10470000089526F41B16611D711D811D2BC045C027
:10471000990F0008550FAA0BE0E8FEEF16161706D2
:10472000E807F907C0F012161306E407F50798F03A
:10473000621B730B840B950B39F40A2661F0232B53
:10474000242B252B21F408950A2609F4A140A695CF
:104750008FEF811D811D089597F99F6780E870E0B4
:1047600060E00895882371F4772321F09850872B17
:10477000762F07C0662311F499270DC09051862B20
:1047800070E060E02AF09A95660F771F881FDAF7CD
:10479000880F9695879597F908959F3F31F091502E
:1047A00020F4879577956795B795880F911D969515
:1047B000879597F908959FEF80EC089500240A9457
:1047C0001616170618060906089500240A941216EC
:1047D0001306140605060895092E0394000C11F41F
:1047E000882352F0BB0F40F4BF2B11F460FF04C0CC
:1047F0006F5F7F4F8F4F9F4F089557FD9058440F25
:10480000551F59F05F3F71F04795880F97FB991F2F
:1048100061F09F3F79F087950895121613061406EC
:10482000551FF2CF4695F1DF08C016161706180679
:10483000991FF1CF86957105610508940895E5DF0C
:10484000A0F0BEE7B91788F4BB279F3860F41616AE
:10485000B11D672F782F8827985FF7CF86957795BA
:104860006795B11D93959639C8F30895E894BB27D1
:1048700066277727CB0197F908954ADF08F48FEF71
:1048800008950BD0A9CF9ADF28F09FDF18F0952369
:1048900009F062CF90CF1124EACFAFDFA0F3959F4C
:1048A000D1F3950F50E0551F629FF001729FBB2717
:1048B000F00DB11D639FAA27F00DB11DAA1F649FC3
:1048C0006627B00DA11D661F829F2227B00DA11D76
:1048D000621F739FB00DA11D621F839FA00D611DFC
:1048E000221F749F3327A00D611D231F849F600D1D
:1048F000211D822F762F6A2F11249F5750408AF056
:10490000E1F088234AF0EE0FFF1FBB1F661F771FE1
:10491000881F91505040A9F79E3F510570F01CCF61
:10492000A6CF5F3FECF3983EDCF3869577956795CD
:10493000B795F795E7959F5FC1F7FE2B880F911DFF
:104940009695879597F90895CF93CFB7F89480916E
:10495000A502811123C0EAE9F0E08491E6E8F0E0E5
:104960009491E82FF0E0EE0FFF1FE255FF4FA59165
:10497000B491EC91E92319F461E08AE000D261E09E
:104980008AE0C1D18CB580618CBD8CB580648CBD52
:1049900061E08DE0B8D161E08BE0B5D18091A502F6
:1049A0008F5F8093A502CFBFCF9108952FB7F89462
:1049B00091E0882339F092E0813021F082E0809309
:1049C000A40290E08091A302892B8093A30280919E
:1049D000A402811103C081E08093A4022FBF089537
:1049E00008958230E8F4E82FF0E0EE0FFF1FE25D5B
:1049F000FE4F71836083813041F0809169008C7F2C
:104A0000482B40936900E89A089580916900837F5C
:104A1000440F551F440F551F482B40936900E99AD6
:104A200008951F920F920FB60F9211242F933F9368
:104A30004F935F936F937F938F939F93AF93BF93A6
:104A4000EF93FF93E0912E01F0912F010995FF91D3
:104A5000EF91BF91AF919F918F917F916F915F91F6
:104A60004F913F912F910F900FBE0F901F9018956F
:104A70001F920F920FB60F9211242F933F934F93D3
:104A80005F936F937F938F939F93AF93BF93EF93B6
:104A9000FF93E0913001F09131010995FF91EF9181
:104AA000BF91AF919F918F917F916F915F914F9146
:104AB0003F912F910F900FBE0F901F9018951F924E
:104AC0000F920FB60F9211242F933F938F939F93C2
:104AD000AF93BF938091A7029091A802A091A902E1
:104AE000B091AA023091A60223E0230F2D3758F58A
:104AF0000196A11DB11D2093A6028093A702909359
:104B0000A802A093A902B093AA028091AB0290914F
:104B1000AC02A091AD02B091AE020196A11DB11DF3
:104B20008093AB029093AC02A093AD02B093AE021F
:104B3000BF91AF919F918F913F912F910F900FBE99
:104B40000F901F90189526E8230F0296A11DB11D06
:104B5000D2CF789484B5826084BD84B5816084BDF1
:104B600085B5826085BD85B5816085BDEEE6F0E0E6
:104B7000808181608083E1E8F0E010828081826042
:104B80008083808181608083E0E8F0E080818160C3
:104B90008083E1EBF0E0808184608083E0EBF0E0F3
:104BA000808181608083EAE7F0E080818460808397
:104BB0008081826080838081816080838081806841
:104BC00080831092C10008958E3008F08E5020919D
:104BD000320190E4299F900111248770822B8093E9
:104BE0007C0080917A00806480937A0080917A00C2
:104BF00086FDFCCF809178009091790008951F93F5
:104C0000CF93DF93182FEB0161E07DD0209731F433
:104C100060E0812FDF91CF911F91B1C0CF3FD105CF
:104C200011F461E0F6CFE12FF0E0E859FF4FE49195
:104C3000E33031F140F4E130B1F0E230E1F0C0387E
:104C4000D1057CF7E5CFE73029F1E83059F1E430C0
:104C5000B1F780918000806280938000D0938B00B8
:104C6000C0938A0004C084B5806884BDC7BDDF914D
:104C7000CF911F91089584B5806284BDC8BDF7CFE0
:104C800080918000806880938000D0938900C093D9
:104C90008800EDCF8091B00080688093B000C09311
:104CA000B300E5CF8091B00080628093B000C093E4
:104CB000B400DDCF833081F028F4813099F0823068
:104CC000A9F008958730A9F08830C9F08430B1F494
:104CD000809180008F7D03C0809180008F778093CA
:104CE0008000089584B58F7784BD089584B58F7D45
:104CF000FBCF8091B0008F778093B00008958091B2
:104D0000B0008F7DF9CFCF93DF9390E0FC01E458A2
:104D1000FF4F249180579F4FFC0184918823C9F055
:104D200090E0880F991FFC01E255FF4FA591B491C7
:104D3000FC01EC55FF4FC591D49161110DC09FB797
:104D4000F8948C91209582238C9388812823288342
:104D50009FBFDF91CF910895623051F49FB7F894CF
:104D60003C91822F809583238C93E8812E2BEFCF6B
:104D70008FB7F894EC912E2B2C938FBFEACF1F9313
:104D8000CF93DF93282F30E0F901E859FF4F84914A
:104D9000F901E458FF4FD491F901E057FF4FC49156
:104DA000CC23A1F0162F811185DFEC2FF0E0EE0F60
:104DB000FF1FEC55FF4FA591B4918FB7F894EC917C
:104DC000111108C0D095DE23DC938FBFDF91CF9106
:104DD0001F910895DE2BF8CFFC01918D228D892F34
:104DE00090E0805C9F4F821B91098F7399270895F3
:104DF000FC01918D828D981731F0828DE80FF11DA5
:104E0000858D90E008958FEF9FEF0895FC01918DBF
:104E1000828D981761F0A28DAE0FBF2FB11D5D96E8
:104E20008C91928D9F5F9F73928F90E008958FEF8A
:104E30009FEF0895FC01538D448D252F30E0842F82
:104E400090E0821B930B541710F0CF9608950197B2
:104E50000895FC01A48DA80FB92FB11DA35ABF4F0F
:104E60002C91848D90E001968F739927848FA68969
:104E7000B7892C93A089B1898C91837080648C93BD
:104E8000938D848D981306C00288F389E02D80816C
:104E90008F7D80830895CF93DF93EC01888D8823E5
:104EA000B1F0AA89BB89E889F9898C9185FD03C095
:104EB000808186FD0CC00FB607FCF7CF8C9185FF73
:104EC000F2CF808185FFEDCFCE01C3DFEACFDF9146
:104ED000CF910895EF92FF920F931F93CF93DF939B
:104EE000EC0181E0888F9B8D8C8D98131AC0E88926
:104EF000F989808185FF15C09FB7F894EE89FF89F5
:104F00006083E889F98980818370806480839FBF92
:104F100081E090E0DF91CF911F910F91FF90EF9092
:104F20000895F62E0B8D10E00F5F1F4F0F731127A2
:104F3000E02E8C8D8E110BC00FB607FCFACFE889DE
:104F4000F989808185FFF5CFCE0183DFF2CFEB8D2C
:104F5000EC0FFD2FF11DE35AFF4FF0829FB7F8943D
:104F60000B8FEA89FB8980818062D0CFCF92DF925C
:104F7000EF92FF921F93CF93DF93EC016A017B01C5
:104F8000122FE889F98982E08083C11481EED80666
:104F9000E104F10499F060E079E08DE390E0A7018D
:104FA0009601F5D02150310941095109569547958F
:104FB00037952795211580E1380790F0E889F98920
:104FC000108260E874E88EE190E0A7019601DFD0DE
:104FD0002150310941095109569547953795279533
:104FE000EC85FD853083EE85FF852083188EEC8966
:104FF000FD891083EA89FB89808180618083EA8949
:10500000FB89808188608083EA89FB898081806850
:105010008083EA89FB8980818F7D8083DF91CF91B6
:105020001F91FF90EF90DF90CF9008951F920F9205
:105030000FB60F9211242F938F939F93EF93FF93AB
:10504000E091BF02F091C0028081E091C502F09131
:10505000C60282FD1BC090818091C8028F5F8F7352
:105060002091C902821741F0E091C802F0E0E155B9
:10507000FD4F958F8093C802FF91EF919F918F9183
:105080002F910F900FBE0F901F9018958081F4CF35
:105090001F920F920FB60F9211242F933F934F93AD
:1050A0005F936F937F938F939F93AF93BF93EF9390
:1050B000FF938FEA92E0CDDEFF91EF91BF91AF9128
:1050C0009F918F917F916F915F914F913F912F9120
:1050D0000F900FBE0F901F901895EFEAF2E0138229
:1050E000128288EE93E0A0E0B0E084839583A683EB
:1050F000B78381E492E09183808385EC90E095878B
:10510000848784EC90E09787868780EC90E0918B91
:10511000808B81EC90E0938B828B82EC90E0958B7E
:10512000848B86EC90E0978B868B118E128E138E7B
:10513000148E0895AF92BF92CF92DF92EF92FF92BA
:105140000F931F93CF93DF936C017B018B01040FAF
:10515000151FEB015E01AE18BF08C017D10759F04B
:105160006991D601ED91FC910190F081E02DC6018D
:105170000995892B79F7C501DF91CF911F910F9187
:10518000FF90EF90DF90CF90BF90AF900895A1E295
:105190001A2EAA1BBB1BFD010DC0AA1FBB1FEE1FB1
:1051A000FF1FA217B307E407F50720F0A21BB30BFC
:1051B000E40BF50B661F771F881F991F1A9469F778
:1051C00060957095809590959B01AC01BD01CF01D4
:1051D0000895A29FB001B39FC001A39F700D811DD0
:1051E0001124911DB29F700D811D1124911D0895F0
:1051F000EE0FFF1F0590F491E02D0994F894FFCF76
:10520000050A000080BF000080BF000080BF0000D2
:1052100080BF000080BF000080BF00000000FAFED9
:10522000FAFEFAFEFAFEFAFEFAFE00000001F02491
:10523000F0240108000000E80300000080000800DE
:105240000000F401000000900208000000FA0000D5
:105250000000B10508000000C800000000B4060806
:105260000000007D00000001B1050800000064009E
:10527000000001B406080000005000000001BF0754
:10528000080000003200000003B4060800000028F7
:1052900000000003BF07080000001400000007BF63
:1052A00007080000000A0000000FBF070800000008
:1052B000050000001FBF0710000000E80300000009
:1052C000D08210000000F401000000F08610000001
:1052D00000FA00000041F18510000000C800000045
:1052E00001FA87100000007D00000003F086100026
:1052F00000006400000003FA871000000050000066
:105300000003FF87100000003200000007FA87103A
:105310000000002800000007FF87100000001400B4
:1053200000000FFF87100000000A0000001FFF8729
:1053300010000000050000003FFF87FD070000008F
:10534000006A279A281A274B27EC260627F82600FA
:00000001FF
